:020000040000FA
:10000000A82B0020F90200000103000003030000F8
:1000100005030000070300000903000000000000C2
:100020000000000000000000000000000B030000C2
:100030000D030000000000000F030000110300008A
:1000400013030000130300002508000069050000E9
:100050001303000013030000130300001303000048
:100060001303000013030000130300001303000038
:100070001303000013030000130300001303000028
:100080001303000013030000130300001303000018
:100090001303000013030000130300001303000008
:1000A00013030000130300001303000013030000F8
:1000B0001303000013030000000000000000000014
:1000C00013030000130300001303000013030000D8
:1000D00013030000130300001303000000000000DE
:1000E0000000000000000000000000000000000010
:1000F0000000000000000000000000000000000000
:1001000000000000000000000000000000000000EF
:1001100000000000000000000000000000000000DF
:1001200000000000000000000000000000000000CF
:1001300000000000000000000000000000000000BF
:1001400000000000000000000000000000000000AF
:10015000000000000000000000000000000000009F
:10016000000000000000000000000000000000008F
:10017000000000000000000000000000000000007F
:10018000000000000000000000000000000000006F
:10019000000000000000000000000000000000005F
:1001A000000000000000000000000000000000004F
:1001B000000000000000000000000000000000003F
:1001C000000000000000000000000000000000002F
:1001D000000000000000000000000000000000001F
:1001E000000000000000000000000000000000000F
:1001F00000000000000000000000000000000000FF
:10020000DFF80CD000F0D8F80048004721170000B4
:10021000A82B002030B4044654E8000F0D4644E8F3
:100220000053002BF8D1156030BC704730B4044641
:1002300054E8000F40EA010544E80053002BF7D1D1
:10024000156030BC704730B4044654E8000F00EA33
:10025000010544E80053002BF7D1156030BC70470E
:1002600030B4044654E8000F80EA010544E8005326
:10027000002BF7D1156030BC704730B4044654E809
:10028000000F00EB010544E80053002BF7D1156087
:1002900030BC704730B4044654E8000FA0EB0105B1
:1002A00044E80053002BF7D1156030BC704770B4A0
:1002B00004464FF0000054E8006F0D68AE4207BFDF
:1002C00044E80023012044E800630E60002B1CBFBB
:1002D0000020F0E770BC704730B4044654E8000FCB
:1002E00088422CBF451A054644E80053002BF5D13F
:1002F000156030BC7047000006488047064800473C
:10030000FEE7FEE7FEE7FEE7FEE7FEE7FEE7FEE7C5
:10031000FEE7FEE78D05000001020000004870477F
:100320006844000040EA01039B0703D009E008C9C4
:10033000121F08C0042AFAD203E011F8013B00F8AA
:10034000013B521EF9D27047D2B201E000F8012BF6
:10035000491EFBD270470022F6E710B513460A4645
:1003600004461946FFF7F0FF204610BD421C10F866
:10037000011B0029FBD1801A7047034611F8012B9D
:1003800000F8012B002AF9D11846704730B50B460A
:10039000014600202022012409E021FA02F59D42B5
:1003A00005D303FA02F5491B04FA02F52844151E89
:1003B000A2F10102F1DC30BD064C074D06E0E06819
:1003C00040F0010394E8070098471034AC42F6D39C
:1003D000FFF71AFF04450000244500002DE9FC4109
:1003E00004460D4616460027062269463B2001F0CA
:1003F000EDFA90B3062269463B2001F0E7FA9DF83A
:1004000001009DF8001040EA012000B22080208801
:1004100000F4004010B1208800B220809DF8030055
:100420009DF8021040EA012000B22880288800F4DC
:10043000004010B1288800B228809DF805009DF882
:10044000041040EA012000B23080308800F40040FF
:1004500010B1308800B2308001273846BDE8FC81F9
:100460002DE9FC4104460D46164600270622694642
:10047000432001F0ABFA68B39DF801009DF800102D
:1004800040EA012000B22080208800F4004010B132
:10049000208800B220809DF803009DF8021040EAF9
:1004A000012000B22880288800F4004010B128887C
:1004B00000B228809DF805009DF8041040EA012054
:1004C00000B23080308800F4004010B1308800B2B3
:1004D000308001273846BDE8FC8110B500F0AAF94C
:1004E00010BD00002DE9F047074688461646C24673
:1004F00007EB47011B4800EBC109D9F8140020B1F4
:10050000012811D0022826D11EE0484600F0CAF981
:100510000546B54201D2002405E034463246514634
:10052000484600F006FA18E0484600F0BBF90546D8
:10053000B54201D2284600E03046044622465146E4
:10054000484600F0F6F908E032465146484600F0C9
:10055000B7F9044601E0002400BF00BF2046BDE813
:10056000F08700003409002010B50249024803F06A
:1005700033F910BD0C03002000300040014802494F
:10058000086070470090D003B800002010B500F05C
:10059000D5FD28B192480088C0F304209149086035
:1005A00000F020FE10B190489049486700F042FEEC
:1005B00030B18B48E0380068C0F342308C490860A5
:1005C00000F062FE28B18B48006820F080708949F5
:1005D000086000F071FE48B10020874908604FF0C4
:1005E0008041C1F810018249091F086000F08EFEA9
:1005F00018B103207E496431086000F09FFE68B1A5
:1006000005207E49086001207C497831086000207F
:100610007A49083108603F20091F086000F0A6FEF3
:10062000002855D06E48E0300068754908606C4875
:10063000E4300068091D08606948E8300068091D59
:1006400008606748EC300068091D08606448F030B5
:100650000068091D08606248F4300068091D0860E0
:100660005F48F83000686649203108605C48FC301B
:100670000068091D086063480068091D086061483A
:10068000001D0068091D08605E4808300068091DEB
:1006900008605C480C300068091D0860594810303B
:1006A0000068574940310860564814300068091DF9
:1006B0000860544818300068091D086051481C3013
:1006C0000068091D08604F4820300068091D086057
:1006D00000F00AFD30B14248CC38006800F04F000D
:1006E0004949086000F054FD40B14848006800F0F6
:1006F000010018B16FF001004449086000F08AFD64
:1007000028B14348006840F4806041490860394896
:100710007438006840F4700036497439086000BFCE
:1007200000BF00BFBFF34F8F00BF00BF00BF00BFBF
:1007300000BF00BFBFF36F8F00BF00BF00BF3548D1
:10074000006800F0004028B93248001D006800F041
:100750000040E8B301203049086000BF2F4800681E
:100760000028FBD015202B49086000BF2B480068EB
:100770000028FBD015212748001D016000BF274835
:1007800000680028FBD000202349086000BF2348F0
:1007900000680028FBD000BF00BF00BF00BF00BF43
:1007A000BFF34F8F00BF00BF00BF1248F038006892
:1007B00000F4E0601A490843001D0E49F039086052
:1007C00000BF00BF00BFBFF34F8F00BF00BF00E0FE
:1007D00003E000BF00BF00BFFDE7FFF7CFFE10BD85
:1007E00024030010403501400DF0ADBA00C00740B1
:1007F0003C050040FCED00E00C01004010560040BC
:1008000020C5004024040010E40E00400004004015
:100810003C1700400012001004E5014000E40140D4
:100820000000FA0510B502490868804710BD0000B5
:100830001C00002010B5124C02202061606111A044
:10084000A0611349E1614FF4007121620021A162AE
:100850006162E1620BA0A0640E49E1641021216590
:100860000021A1656165E1650BA1E01DFFF785FD34
:100870000AA12046FFF781FD2020A07110BD0000D5
:100880001C0900205465726D696E616C00000000E7
:1008900094090020940B00205254540053454747BC
:1008A0004552000010B501460A69CB689A4204D847
:1008B0008C68641EE41AA01801E0D41A601E10BDF2
:1008C0002DE9F0470446894617464FF0000AE568CF
:1008D00000BFD4F81080A84503D9A8EB0500461E38
:1008E00004E0A5EB0800401CA1680E1AA068401B9C
:1008F000B04201D9304601E0A068401B0646BE4226
:1009000001D2304600E03846064661684819324652
:100910004946FFF707FDB244B144BF1B3544A06808
:10092000A84200D10025E560002FD2D15046BDE895
:10093000F0872DE9F047044689461546E668A06829
:10094000871BAF4208D9616888192A464946FFF7D4
:10095000E9FC7019E06010E0B84661688819424609
:100960004946FFF7DFFCA5EB070809EB0701424604
:100970006068FFF7D7FCC4F80C80BDE8F087000082
:100980000FB4054B10B503A9044A029800F018F8FB
:1009900010BC5DF814FB0000ED13000054000020B3
:1009A00002E008C8121F08C1002AFAD17047704738
:1009B000002001E001C1121F002AFBD17047000096
:1009C0002DE9FF4F89B09B460446002506E0252807
:1009D0000BD05A460B999047641C6D1C2078002858
:1009E000F5D10DB02846BDE8F08F0027B8460122AA
:1009F000474900E0074314F8013F203B02FA03F0A7
:100A00000842F7D120782E2819D114F8010F47F0A9
:100A100004072A280ED06FF02F022078A0F13001B1
:100A200009290CD808EB880102EB410100EB010811
:100A3000641CF2E70A98641C50F8048B0A90207832
:100A40000028CED0642808D0692806D075281ED08A
:100A50005A460B9990476D1C58E00A994FF00A09C5
:100A600001C90A91002802DA40422D2102E039052D
:100A700004D52B218DF82010012103E0F90704D0C3
:100A80002021F7E78A4608AE0DE00021FAE70A992F
:100A90004FF00A0901C90A91F7E74946FFF776FCCA
:100AA000303106F8011D0028F7D1ADEB060000F14A
:100AB0002009780701D44FF00108C84502DDA8EBF2
:100AC000090000E000208046002706E008A85A46FA
:100AD000C05D0B9990476D1C7F1C5745F6DB04E009
:100AE00030205A460B9990476D1CB8F10001A8F1CF
:100AF0000108F5DC05E016F8010B5A460B99904702
:100B00006D1CB9F10001A9F10109F4DC641C65E771
:100B10000928010072B600BF01F058FE00BF00BFF7
:100B200001F01CFC0028FBD100BF00BF1D491E4A7C
:100B3000891AC908012242EA01401CA101F096FD70
:100B400000BF1D48006800F0010000B100BE00BFFA
:100B50001449154A891AC908022242EA014017A11C
:100B600001F084FD00BF00BF00BF00BF00BFBFF3A6
:100B70004F8F00BF00BF00BF0F48E438006800F48B
:100B8000E06012490843001D0B49E439086000BFCA
:100B900000BF00BFBFF34F8F00BF00BF00BF00BF4B
:100BA00000BFFDE754450000344500004661746114
:100BB0006C206572726F7200F0ED00E0537973740F
:100BC000656D207265736574000000000000FA0511
:100BD0003EB50446002000900190029002946A46BF
:100BE000002144F20100FFF795FF3EBD70B50446B9
:100BF0000D46204600F0DEFB28B12946204600F0D5
:100C0000CDFB002070BD0520FCE7034609B90E208E
:100C1000704712B1501E104008B10920F8E7196062
:100C2000501E988000209860D86000BFF0E770B533
:100C300004460D46204600F0BDFBA188884205D839
:100C40002946204600F0C9FB002070BD0420FCE7C7
:100C50002DE9F04188B004460E46174698462B48C9
:100C600007601EB9072008B0BDE8F081B08882B2E5
:100C700027483168FFF7C9FF054600BF284600B185
:100C8000F1E700BFB08982B22248B168FFF7BDFF2B
:100C9000054600BF284600B1E5E700BF20221E49F7
:100CA0006846FFF73FFB60690690207C08B1012091
:100CB00000E000208DF814008DF81C80607C08B1E5
:100CC0000E2000E000208DF81500E0680290A0687A
:100CD00003902068019060680090104A69461048AF
:100CE00000F0E2FF054600BF284600B1BBE700BFA9
:100CF00000200C4908702068401C28B101220A49D4
:100D0000074801F017F8AEE70020ACE74C000020E0
:100D100040030020500300209C430000553D00008C
:100D20003800002052000020510000202DE9F04141
:100D3000054629461448FFF77AFF064606BB134CC2
:100D4000002720781249085C20B1201D02F0CEFA5D
:100D5000074608E020780E49085C20B904F10C0031
:100D600002F06CF9074600BF57B90A490648FFF779
:100D70003DFF28B901220749044800F0FDFF06465F
:100D80003046BDE8F081000050030020380000200C
:100D9000180000205000002000B5024600F006F8C0
:100DA00000BD00B5024600F00BF800BD72B6034866
:100DB0000068401C014908607047000034000020B2
:100DC00004480068401E034908600846006800B9EE
:100DD00062B670473400002070B505460C462068A6
:100DE000401C28B1206801F091F9206801F06BF9EE
:100DF0006068401C18B10021606801F04AF9286859
:100E0000A169C0F8241500BF617D227D286841EAF0
:100E10000203C0F86C3500BFD4E90012286801F065
:100E200064FE207D012814D1A068401C18B1002167
:100E3000A06801F02EF9E068401C28B1E06801F0DC
:100E400065F9E06801F03FF9D4E90221286801F072
:100E500035FE70BD70B505460C462068401C28B1B3
:100E6000206801F05EF9206801F039F96068401CE3
:100E700018B10021606801F019F92868A169C0F86B
:100E8000241500BF617D227D286841EA0203C0F875
:100E90006C3500BFD4E90012286801F05EFE207DA9
:100EA000012814D1A068401C18B10021A06801F0ED
:100EB000FDF8E068401C28B1E06801F032F9E06814
:100EC00001F00DF9D4E90221286801F027FE70BD78
:100ED000002114E00C48D0F81024012308E000BFE2
:100EE000D0680079884201D1002303E0D06802680D
:100EF000002AF4D100BF0BB108467047491C0A29EB
:100F0000E8DB4FF0FF30F8E7F80400207CB5002460
:100F10000DE00848055D0326002000903346024698
:100F200001460190284601F064F800BF641C042CBF
:100F3000EFD37CBDD442000010B5044604F001009C
:100F400008B100F011F804F0020008B1FFF7DEFF6D
:100F500010BD000010B504460249085D012101F0F2
:100F6000F6F810BDD04200007CB500240CE0094822
:100F7000055D00200090034601221146019028469D
:100F800001F037F800BF641C042CF0D300F004F823
:100F90007CBD0000D042000010B5002403E02046D4
:100FA000FFF7D8FF641C042CF9D310BD2DE9F84FCE
:100FB00004460D461646A71C4FF001080020FFF717
:100FC000EBFE3048006828602E4800682D494968CB
:100FD000411A2C488068401CA0EB010915E0012152
:100FE000294800F06CFD00F037FB82465146264848
:100FF00000F065FD2348006822494968411A2148EC
:101000008068401CA0EB010900BF4F45E7D8B8F14C
:10101000000F30D00021009176B1009921F003013A
:10102000491C0091009921F00401091D00910099CB
:1010300064F3891100910DE0009921F00301891CEE
:101040000091009921F00401091D0091009964F3B9
:101050009F5100910B4909680A4A92681140094A58
:101060000C3202EB8100009901600649096839449D
:101070000C3A116000BF0020FFF793FE4046BDE828
:10108000F88F0000F80400201409002070B5044611
:101090000D460A2D03D10D212046FFF7F7FFA16869
:1010A000481CA06020684554D4E90110884202D34E
:1010B000204600F098FE70BD044840680349096866
:1010C000884201D1012070470020FCE7F80400208D
:1010D00010B50021034800F008FD044684F3100019
:1010E00010BD00001409002013480078062820D104
:1010F0001148001D007800F00F00D0B90E480830EC
:10110000007800F0F000302801D1012070470A4833
:101110000830007800F0F000402801D10120F5E708
:1011200005480830007800F0F000502801D1012077
:10113000ECE70020EAE70000E00F00F01348007839
:10114000062820D11148001D007800F00F00D0B90A
:101150000E480830007800F0F000302801D101205E
:1011600070470A480830007800F0F000402801D1AC
:101170000120F5E705480830007800F0F00050281D
:1011800001D10120ECE70020EAE70000E00F00F0C9
:1011900013480078062820D11148001D007800F07F
:1011A0000F00D0B90E480830007800F0F000302869
:1011B00001D1012070470A480830007800F0F000A3
:1011C000402801D10120F5E705480830007800F0FB
:1011D000F000502801D10120ECE70020EAE70000F0
:1011E000E00F00F00A48007806280ED10848001DDC
:1011F000007800F00F0040B905480830007800F092
:10120000F000302801D1012070470020FCE70000E9
:10121000E00F00F006480068062806D10448001DCB
:101220000068062801D1012070470020FCE700007B
:101230003001001013480078062820D11148001D05
:10124000007800F00F00D0B90E480830007800F0A8
:10125000F000302801D1012070470A48083000789A
:1012600000F0F000402801D10120F5E705480830E2
:10127000007800F0F000502801D10120ECE70020B8
:10128000EAE70000E00F00F00A48007806280ED1D7
:101290000848001D007800F00F0040B905480830EC
:1012A000007800F0F000302801D1012070470020C4
:1012B000FCE70000E00F00F013480078062820D17A
:1012C0001148001D007800F00F00D0B90E4808301A
:1012D000007800F0F000302801D1012070470A4862
:1012E0000830007800F0F000402801D10120F5E737
:1012F00005480830007800F0F000502801D10120A6
:10130000ECE70020EAE70000E00F00F00A48007870
:1013100006280ED10848001D007800F00F0040B9E3
:1013200005480830007800F0F000302801D1012095
:1013300070470020FCE70000E00F00F00A4800784A
:1013400006280ED10848001D007800F00F0040B9B3
:1013500005480830007800F0F000302801D1012065
:1013600070470020FCE70000E00F00F00A4800781A
:1013700006280ED10848001D007800F00F0040B983
:1013800005480830007800F0F000502801D1012015
:1013900070470020FCE70000E00F00F070B5044645
:1013A0000D462A460021204600F00EF8A068401C99
:1013B000A06070BD01468A68C868801A70470146FF
:1013C0008A68C868801A704710B583680B4484889F
:1013D00023400468E35C137010BDC26883881A4020
:1013E00003689954C268521CC260704770B50446C5
:1013F0000D46E0B2FFF79AFC204670BD2DE9FC5F78
:1014000083460E4691461F46DDE90C45002E01DA63
:10141000704200E0304682464FF0010803E09AFB3C
:10142000F9FA08F10108CA45F9DA474500D9B84682
:1014300034B1002E03DB05F00400042800D1641E43
:1014400005F0020000B167B105F0010048B944B1F0
:1014500004E0641E20215846FFF718FE0CB1A04599
:10146000F7D3002E05DA76422D215846FFF70EFEFF
:1014700007E005F00400042803D12B215846FFF7AC
:1014800005FE05F0020002280DD105F0010050B95B
:101490004FB944B104E0641E30215846FFF7F6FD11
:1014A0000CB1A045F7D33B464A4631465846CDE9F4
:1014B000004502F03BFEBDE8FC9F00002DE9F04135
:1014C00004460E464FF48E71206801F0F0FA4FF496
:1014D000A271206801F0EBFA1749206801F0F6FAD2
:1014E000206801F04DFB054637462846394600285E
:1014F00009DA4A074FEA126C104A00F00F031B1F6B
:1015000002F803C003E04A07130E0D4A135400BF4C
:1015100000BF206801F034FB0546284600F01F029A
:10152000012191404209920002F1E022C2F800112B
:1015300000BF00BFBDE8F0818000020018ED00E0B0
:1015400000E400E02DE9F04104460E464FF48871B6
:10155000206801F0DCFA4FF49071206801F0D7FAAE
:101560004FF49271206801F0D2FA4FF4A271206812
:1015700001F0CDFA4FF4AC71206801F0C8FA1849B7
:10158000206801F0D4FA206801F0FEFA05463746DB
:1015900028463946002809DA4A074FEA126C114AF0
:1015A00000F00F031B1F02F803C003E04A07130EED
:1015B0000D4A135400BF00BF206801F0E5FA05464C
:1015C000284600F01F02012191404209920002F1D9
:1015D000E022C2F8001100BF00BFBDE8F0810000AA
:1015E0001003420018ED00E000E400E030B50246D0
:1015F00000201378C3F38003D3B1137803F00303FF
:10160000012B02D0022B10D107E01388C3F3831300
:101610009B1C0C6823440B6008E00B6802251468CF
:1016200005EB945423440B6000E000BF00BF012091
:1016300030BD70B50021084601F080F8044600BFB7
:10164000254625B100BF2846FFF7C2FA00BF00BFFC
:1016500000F070FE70BD00002DE9FF4100272E480C
:1016600000F026FA2C48001F00F022FA2B484068B0
:1016700003902A4885680398284028490C3101EBDB
:10168000800800BF03A94046FFF7B0FF30B10398C0
:10169000284022490C3101EB800800E000E0F1E72E
:1016A00000BF00240AE00398411C284003911B4915
:1016B0000C3151F820004DF82400641C022CF2D3A8
:1016C000009800F0030001280DD0022814D1BDF8C5
:1016D00006700421009801EB9050401E039901EB25
:1016E0009000039009E0BDF806700098C0F38310E5
:1016F00003990844039000E000BF00BF0648001FA4
:1017000000F0CFF9064616B1044903984860384600
:1017100004B0BDE8F081000010090020F8040020AA
:10172000FFF787FF0320FFF707FC02F0D1FA01F073
:10173000FBFF4FF4FA6000F061FA06E029A0FFF722
:101740001FF94FF4487000F059FA00F01BF9002817
:10175000F4D029A0FFF714F92D492E4A891AC90897
:10176000032242EA01402CA100F080FF00BF00BF2D
:1017700000F0F4FD0028FBD100BF32E02C4A911E9E
:10178000881EFEF72BFE58B12948001FB0F904301F
:10179000B0F90220B0F9001026A0FFF7F1F802E03E
:1017A00028A0FFF7EDF82B4A911E881EFEF758FE81
:1017B00058B12848001FB0F90430B0F90220B0F940
:1017C000001025A0FFF7DCF802E028A0FFF7D8F80A
:1017D000204A911E881EFEF743FE4FF4FA7000F077
:1017E0000DFACBE76D70753630353020696E69744F
:1017F000206661696C0D0A006D70753630353020D9
:10180000696E6974207375636573730D0A00000057
:1018100054450000344500006D7075363035302079
:101820006578616D706C65207374617274656400B5
:10183000040000204143433A20202564092564091F
:101840002564090052656164204143432066616953
:101850006C6564000A0000204759524F3A20256405
:10186000092564092564090D0A00000052656164B8
:10187000204759524F206661696C65640000000082
:101880002DE9FF4F87B0044691461E46A2462546E5
:10189000BAF806009AF805104843001F0690BAF8F7
:1018A00006B0301DB0FBFBF00590301DB0FBFBF126
:1018B0000BFB11000490D9F80000811906988142B1
:1018C00002D90698801B01E0D9F800000746C9F844
:1018D000007003E02D680598401E059005980028CB
:1018E000F8D103900498ABEB0008B84501D938460D
:1018F00000E04046804623E003990898084402909F
:10190000281D049908440190149828B14246DDE945
:101910000110FEF707FD04E04246DDE90101FEF794
:1019200001FD002004902D68A7EB080703984044B0
:101930000390BB4501D9384600E05846804600BFB9
:10194000002FD9D10BB0BDE8F08F000070B5034671
:101950000C469CB100F01EFF054600220AE0084834
:1019600000EB820108881E68B04202D11A60002094
:1019700070BD521CAA42F2D30520F9E70020F7E718
:101980000000000010B5012400F07AF8044000F0D7
:1019900077F808B9002010BD00216B2000F050F846
:1019A0000721192000F04CF806211A2000F048F811
:1019B0000021382000F044F818211B2000F040F8E6
:1019C00000211C2000F03CF82046E4E72DE9F74315
:1019D00082B00D46144600201749087001200346C6
:1019E00002AA68210090154800F048F9064600BF99
:1019F000114800780028FBD01EB1002005B0BDE8DA
:101A0000F08300200C4908700C4F4FF068088146A5
:101A100023462A464146381D01F098F9814600BF09
:101A20004E4600BF044800780028FBD00EB10020CD
:101A3000E4E70120E2E700000C000020B0420000D3
:101A40007CB504460D468DF804408DF80550002005
:101A500009490870022301AA68210090074800F094
:101A60000DF9064600BF044800780028FBD00EB1EF
:101A700000207CBD0120FCE70C000020B0420000EB
:101A800008B5012269467520FFF7A0FF38B19DF81F
:101A90000000682801D0002008BD0120FCE70020DC
:101AA000FAE710B504460021204600F013F810BDF7
:101AB00010B504460121204600F022F810BDF8B50B
:101AC00004460D466A4629462046FEF7D6FB0646E2
:101AD0000098F8BDF8B504460D466A4629462046EA
:101AE000FEF7B1FB06463046F8BDF8B504460D4694
:101AF0006A4629462046FEF78DFB06463046F8BD6D
:101B0000F8B504460D466A4629462046FEF78EFB88
:101B100006460098F8BDF8B504460D466A462946C3
:101B20002046FEF7B7FB06460098F8BD70B50446A0
:101B300000260020FFF730F92068006861688842BD
:101B400015D920680068401E226810600178204680
:101B500000F02FF80646207A21680978401AC5B2AD
:101B600020680079A84201DA2068057100BF0020D2
:101B7000FFF717F9304670BD0246D068081A138A7D
:101B8000B0FBF3F0C0B2704770B504460D462E4668
:101B90000020FFF701F931462046FFF7EDFF2168ED
:101BA0000A68511C2368196010700020FFF7F9F8CB
:101BB00070BD0246138AD06801FB0300704710B560
:101BC000014600BF09B90E2010BD00BF087A0B798D
:101BD000C01AC2B2D1E90030186005E00868036895
:101BE000581C0C6820601A70101EA2F10103DAB2B2
:101BF000F4D10B68187100BFE6E700002DE9F04151
:101C000004460CB9BDE8F08100BF4FF47A7505B900
:101C100004E0054FAE013046B84700BF601E041E09
:101C2000F3D100BFEEE70000914200002DE9F0473C
:101C300004460D461646984627780D4840F827601A
:101C40000C4840F82780687B10B1284601F014FD4D
:101C50004FF000090EB1084800E0002002463B4664
:101C60002946201D00F0E4FF81464846BDE8F08784
:101C7000240000202C000020913700002DE9F843BB
:101C800004460D4616461F46DDF820804FF0000939
:101C90003B4632462946201DCDF8008001F06EF803
:101CA00081464846BDE8F8832DE9F04188B00446F6
:101CB0000F46154626781A4840F8265019493869C3
:101CC00041F82600787F1849885520223946684611
:101CD000FEF728FB04964FF0000820781249085CB4
:101CE00050B10DB1114800E0002002466946201DA8
:101CF00001F0C0F980460EE020780B49085C50B92D
:101D00000DB10B4800E000200246694604F10C00CA
:101D100001F078F88046404608B0BDE8F081000048
:101D2000100000201400002018000020C13F000017
:101D3000393E00002DE9F04104460D4616460027C5
:101D400020780C49085C30B132462946201D01F04C
:101D5000D1F907460AE020780649085C30B93246D6
:101D6000294604F10C0001F091F807463846BDE819
:101D7000F0810000180000202DE9F04104460D46D6
:101D80001646002720780C49085C30B132462946B7
:101D9000201D01F04BFA07460AE020780649085C4E
:101DA00030B93246294604F10C0001F001F907462A
:101DB0003846BDE8F0810000180000200FB438B5A7
:101DC0000446059810B938BC5DF814FB002000905B
:101DD00006A800906A462046059900F012F80020F7
:101DE000009000BFEFE770B50446A06800B970BD71
:101DF000D4E90403A268216898470020A06000BFCE
:101E0000F5E72DE9FC5F82460D4614460DB9BDE8A5
:101E1000FC9F00BF2E786D1C06B9E1E0252E70D125
:101E200000274FF0010900BF2E782B2E0CD02D2E4D
:101E300002D0302E0CD103E047F001076D1C0AE000
:101E400047F002076D1C06E047F004076D1C02E036
:101E50004FF0000900BF00BFB9F1000FE4D14FF00F
:101E6000000800BF2A2E06D12168081D20600868DE
:101E700080446D1C0DE02E78302E01DB392E00DD04
:101E800007E06D1CA6F1300008EB880100EB41086B
:101E9000E8E700BF4FF0000B2E782E2E10D16D1CFE
:101EA00000BF2E78302E01DB392E00DD07E06D1CDF
:101EB000A6F130000BEB8B0100EB410BF1E700BF0B
:101EC0002E7800BF6C2E01D0682E02D16D1C2E78AA
:101ED00000E000E0F6E700BF692E21D008DC252EE7
:101EE0006DD0582E39D0632E0CD0642E6CD116E0F4
:101EF000702E4CD0732E3ED0752E1FD0782E63D10D
:101F00002AE065E02168081D2060D1F8009009F002
:101F1000FF00019050460199FFF7B8F855E000BF67
:101F20002168081D2060D1F800905B460A224946CE
:101F30005046CDE90087FFF761FA46E02168081DA9
:101F40002060D1F800905B460A2249465046CDE910
:101F5000008702F0EBF838E000BF2168081D206020
:101F6000D1F800905B46102249465046CDE90087E3
:101F700002F0DCF829E02168081D20600868019063
:101F80003B4642465046019901F03AFB1DE021686C
:101F9000081D2060D1F8009030215046FFF776F8F8
:101FA00078215046FFF772F8002008210B461022D6
:101FB000CDE900104946504602F0B8F805E0252169
:101FC0005046FFF763F800E000BF00BF6D1C03E060
:101FD00031465046FFF75AF8287800287FF41AAFA8
:101FE00000BF9AF80C0010B15046FFF7FCFE00BF8E
:101FF0000DE7F0B5DDE9054500BF4FF0A0473E46CF
:1020000041EA420747EA830747EA042747EA054CC3
:1020100006F5E06747F820C0F0BDF0B5DDE90545FD
:1020200000BF4FF0A0473E4641EA420747EA830718
:1020300047EA042747EA054C06F5E06747F820C061
:10204000F0BDF0B5DDE9054500BF4FF0A0473E46C5
:1020500041EA420747EA830747EA042747EA054C73
:1020600006F5E06747F820C0F0BDF0B5DDE90545AD
:1020700000BF4FF0A0473E4641EA420747EA8307C8
:1020800047EA042747EA054C06F5E06747F820C011
:10209000F0BD7CB505460C46002000902346024664
:1020A000014601902846FFF7B8FF7CBD7CB5054688
:1020B0000C46002000902346024601460190284627
:1020C000FFF7BFFF7CBD1CB504460020009003460F
:1020D0000122114601902046FFF79FFF1CBD1CB551
:1020E000044600200090034601221146019020463C
:1020F000FFF7A7FF1CBD00BF4FF0A0410A46012318
:1021000003FA00F1C2F80C1500BF704700BF4FF092
:10211000A0410A46012303FA00F1C2F8081500BFE6
:10212000704700BF4FF0A0410A46012303FA00F1B7
:10213000C2F8081500BF704700BF4FF0A0410A4623
:10214000012303FA00F1C2F8081500BF704710B56B
:1021500061B900BF00BF4FF0A0421346012404FA4A
:1021600000F2C3F80C2500BF00BF0CE000BF00BFA9
:102170004FF0A0421346012404FA00F2C3F80825E8
:1021800000BF00BF00BF10BD70B504460E46FEF78D
:102190009FFE0546681C08B9284670BDE8B2E16894
:1021A000087100BF0C48D0F8100430B90A48C0F8D4
:1021B00010440020E16808600BE00748D0F81004E4
:1021C000C0680068E16808600348D0F81004C0687F
:1021D00004602846E1E70000F8040020704710B5CD
:1021E000FEF77BF910BD704738B504460D4604482C
:1021F0004023044A29460090204600F005F838BDE7
:10220000A9340000600300202DE9F04F93B082460E
:102210000E4617469846DDF87090304600F0B3FB46
:1022200018210DA8FEF797F80D97CDF83880CDF856
:10223000489000252B46082207A9304600F0C0FB35
:10224000082509980A90BDF82000ADF82C00BDF8CB
:102250002200ADF82E0000208DF83100079800F024
:10226000030001281BD107984FEA902B0798C0F371
:10227000C2008DF830000798C0F38314A2002B46EB
:1022800001A9304600F09CFB05EB84050DA80AABC4
:10229000224601A90090584600F0B4FA27E00798BA
:1022A00000F00300022822D107984FEA905B0798BC
:1022B000C0F3C2008DF8300000BFBBF1080F01D29F
:1022C000584600E0082004462B46224605A9304621
:1022D00000F076FB2544ABEB040B0DAB0AAA2146BC
:1022E00005A800F0CDF9BBF1000FE6D100BF3046E4
:1022F00000F057FB13B0BDE8F08F000010B50246A8
:102300000B4C04EBC203012906D0022906D0032995
:1023100006D0042908D105E0022007E0042005E0EA
:10232000187903E0587901E0002000BF00BF10BD1C
:102330003445000010B54FF0FF34FFF750FF042183
:102340000548FFF721FF044600BF01200249C96884
:10235000487100BF10BD0000244500002DE9F04F7A
:102360008BB0FEF7A9FE18B100200BB0BDE8F08FCE
:102370000020B549C1F8180400BF00BF00BFBFF37B
:102380004F8F00BF00BF00BF084640680A90084654
:1023900084680A9820400C3101EB800A0025002651
:1023A0000020069000BF0AA95046FFF71FF9A8B108
:1023B000A548D0F8180488B9A34800680A9988424B
:1023C00005D8A1480068A04948600020CDE70A98D8
:1023D00020409D490C3101EB800A00E000E0E2E77B
:1023E00000BF00270BE00A98411C20400A91964943
:1023F0000C3151F8200007A941F827007F1C022F5B
:10240000F1D3079800F0030002287CD10798800DD3
:10241000059050210798B1EB905F02DD0798800D81
:1024200000E050208146079869F39F50079009F11A
:10243000080004900798C0F3C200069083480499EE
:1024400000F044FA0546002D5BD0284600F09BFAC8
:102450003346082207A9284600F0C3FA08360A982E
:102460002040611C081A4FEA8008C14535D9B8F1EF
:10247000000F06D00A98204073490C3101EB800010
:1024800001E071480C300390B8F1000F01D04046D4
:1024900000E0484600F0FF0BB8F1000F02D06A4898
:1024A0000C3000E000200290B8F1000F02D0A9EB40
:1024B000080000E00020C0B2019033465A4628468A
:1024C000039900F08EFA5E44029828B133462846FC
:1024D000DDE9012100F085FA0CE00A9820405A4914
:1024E0000C3101EB800B33464A465946284600F032
:1024F00078FA00BF0598C01C0A9901EB90000A9079
:1025000000BF44E0FFE7079800F0030001283ED138
:102510000798C0F38310062803DA0798C0F38310E6
:1025200000E00620079960F3891107910798C0F32E
:10253000831000F102080798C0F3C20006904FEA2A
:102540008801424800F0C2F90546FDB1284600F076
:102550001AFA3346082207A9284600F042FA08363C
:1025600000270EE00A98421C20400A92364A0C329C
:1025700002EB800133460422284600F032FA361D71
:102580007F1C0798C0F38310B842EBD800BFC5B3D7
:102590002D48D0F81084D0F8180418B1284600F05F
:1025A00000FA2DE019E04FF0000900BFD8F80C0048
:1025B0004079012800D18146B9F1000F08D000BF51
:1025C000D8F80000294602684046904700BF00BF87
:1025D000D8F80C00D0F8008000BFB8F1000FE2D1AD
:1025E000284600F0DEF90020FEF7D6FB1648D0F8AA
:1025F000180410B914490A9848600020FEF7D1FB6E
:102600001DE0FFE71048D0F810840AE0C146D9F871
:10261000000081684846884700BFD8F80C00D0F811
:102620000080B8F1000FF1D109490A4A891AC90896
:10263000022242EA014008A100F018F800BFFEF7AC
:102640003BFD80F0010090E6F80400205C450000AE
:1026500054450000344500004261636B656E64734D
:1026600020666C75736865640000000070B50446F0
:102670000D4600231A462946204600F089FF70BD0A
:102680002DE9F05F07460E4690461D46082E01D9FB
:10269000BDE8F09F95F80C9000202873294640462D
:1026A00000F058FE00240CE0B44205D23A5D1DA1B2
:1026B0002846FFF783FB03E01CA12846FFF77EFBBB
:1026C000641C082CF0D31AA12846FFF777FB0024DE
:1026D0001DE0B44216D217F804A0BAF17E0F09DC4F
:1026E000FDF71CFE006810F80A0000F03E0008B17B
:1026F000504600E02E2083465A460EA12846FFF79A
:102700005DFB03E00CA12846FFF758FB641C082C76
:10271000DFD301222946404600F0F8FD85F80C90F1
:1027200000BFB5E7202530327800000020202000CF
:102730007C00000025630000200000002DE9F0412E
:1027400006460F4600BFFF200D4988600020086044
:102750004860C1F81804C1F8140481F8200409483D
:1027600000F019F9044614B12046BDE8F08106488E
:1027700000F048F905480649401AC5080020F4E76A
:10278000F80400205C450000D84300005C450000D0
:102790003445000002480349401AC0087047000051
:1027A0005C4500003445000013B50C4621466846E0
:1027B000FFF7CCF828B90448009A00EBC20108687A
:1027C0001CBD0020FCE700003445000070B50C483B
:1027D000D0F8104401200A4981F820040CE000BF21
:1027E0000120E168487100BF2546286841682846F5
:1027F000884700BFE0680468002CF0D170BD00007D
:10280000F80400202DE9FF4707460C461646984677
:102810000C9D95F80C90002028732946404600F046
:1028200099FD072E47D2DFE806F004090F161F2A8C
:10283000370039462846FFF7C1FA3DE039462846B9
:102840002268FFF7BBFA37E039462846D4E900236F
:10285000FFF7B4FA30E0A068009039462846D4E982
:102860000023FFF7ABFA27E0D4E90201CDE900012C
:1028700039462846D4E90023FFF7A0FA1CE0D4E942
:1028800002122069CDE90012029039462846D4E9A7
:102890000023FFF793FA0FE0D4E90223D4E90410F0
:1028A000CDE90023CDE9021039462846D4E90023BA
:1028B000FFF784FA00E000BF00BF0022294640462F
:1028C00000F024FD85F80C90BDE8FF872DE9F84F56
:1028D00007468A46388AA0F104080AF104004044F9
:1028E000401EB0FBF8F0C0B200903846FFF71EF96A
:1028F000044614B90020BDE8F88F002020710121A2
:102900006171A4F8068025460098A0F1010B2C46C1
:102910002F604FF0000912E03846FFF707F906462E
:1029200036B16079401C60712E603760354604E036
:10293000204600F008F80020DDE709F10109D9453B
:10294000EAD32046D7E72DE9F05F0446274697F8FB
:1029500005802646A8F1010B002501E036686D1CB4
:102960005D45FBD3D6F800A02646002507E0D6F843
:10297000009031465046FFF707F94E466D1C45451D
:10298000F5D3BDE8F09F70B5044625460121281D0A
:10299000FFF795F870BD10B504462046FFF70FF914
:1029A00010BDF8B5044626460121301DFFF7B3F8E7
:1029B00000906D46287810B92046FFF7C4FFF8BD97
:1029C0002DE9FC4105460E4614461F4601940120A0
:1029D0003B4601AA314600902846FEF751FFBDE86C
:1029E000FC812DE9FC4105460E4614461F46019424
:1029F00000203B4601AA314600902846FEF740FFE2
:102A0000BDE8FC8100218268916082681161826862
:102A100051618268D160826851608268116070473C
:102A20000621C0F8001570470146D1F8C404C1F86A
:102A3000C40470470246505808B101207047002076
:102A4000FCE708B5002242504258009200BF08BD82
:102A5000C0F808137047C0F804137047C0F8341565
:102A60004FF4A7631A507047014640F23C5040585B
:102A70007047C0F800127047012242507047C0F8FA
:102A800044154FF4A9631A507047014640F24C5068
:102A9000405870470146D1F88004C1F8800470475F
:102AA0000246505808B1012070470020FCE708B5E5
:102AB000002242504258009200BF08BDC0F80815DD
:102AC000C0F810257047C0F808137047C0F8041309
:102AD00070470246D2F80403084008B1012070474D
:102AE0000020FCE7012242507047C0F81425C0F8CE
:102AF0000C1570470146D1F88004C1F88004704776
:102B00000246505808B1012070470020FCE708B584
:102B1000002242504258009200BF08BDC0F808157C
:102B20004FF4A2631A507047C0F808137047C0F8FA
:102B300004137047014640F23C5040587047D0F8AB
:102B400000228A43C0F80022704701224250704799
:102B5000014640F24C504058704740F20C53195017
:102B600040F214531A50704770B5044604B970BD52
:102B7000024EA5012846B04700BFF8E741430000D8
:102B80000146080B40B270470146080B40B270473F
:102B90000146080B40B27047014601F06040B0F1B9
:102BA000005F01D1012070470020FCE7014601F0E1
:102BB0006040B0F1005F01D1012070470020FCE7C8
:102BC0002DE9F04107460E46384600F015FC044654
:102BD000BCB14FF000080020FEF7DEF8207910B1FC
:102BE0004FF0010802E02660012020710020FEF76E
:102BF000D8F8B8F1000F03D011252846BDE8F081C0
:102C000000BF00252846F9E770B50446207900EB9F
:102C1000800101EBC000054901EB80052068FFF74A
:102C2000FFFE022085F82D0070BD00000C0300207F
:102C30002DE9FF4F83B006460D469246307900EBF2
:102C4000800101EBC0003D4901EB800494F82D00A8
:102C500028B14FF00809484607B0BDE8F08F327937
:102C6000374B53F822103068FFF7AAFF18B14FF026
:102C700011094846F0E7C4F800A0069860600020FB
:102C8000A06084F8300084F82F00687B84F832005C
:102C900000200621CDE900100323002211462868F8
:102CA000FFF7E3F900200621CDE9001003230022FD
:102CB00011466868FFF7D9F93768D5E90001C7F808
:102CC000080540F20C52D15100BFA868C7F824058E
:102CD00000BF206858B33068FFF75AFF804695F868
:102CE0000CB040465946002809DA4A074FEA126CF0
:102CF000144A00F00F031B1F02F803C003E04A0749
:102D0000130E114A135400BF00BF3068FFF740FF95
:102D10008046404600F01F02012191404209920086
:102D200002F1E022C2F8001100BF00BF00BF012085
:102D300084F82D004FF0000948468DE70C03002071
:102D40005843000018ED00E000E400E0F0B585B065
:102D500007460C4615461E46142207496846FDF7ED
:102D6000E1FA8DF801400196039500226946384644
:102D700000F024F805B0F0BD784300002DE9F041E3
:102D800086B007460C4615461E46DDF830801421F5
:102D900001A8FDF7E0FA8DF8054002960495B8F118
:102DA000000F01D0202000E00020024601A9384693
:102DB00000F004F806B0BDE8F08100002DE9F04114
:102DC00004460D46164600BF207900EB800101EB5A
:102DD000C000064901EB800833462A464046216878
:102DE00000F0C4FD07463846BDE8F0810C03002022
:102DF00010B50249024801F03BF810BDBC020020AA
:102E0000002000402DE9F04105460E46174628797E
:102E100000EB400101EBC0001A4901EB80044FF0C8
:102E2000000894F82A0020B14FF008084046BDE899
:102E3000F0812A79144B53F822102868FFF7C0FE5E
:102E400018B14FF011084046F1E731462846FDF72A
:102E5000C3FF676030692060606818B1317F284621
:102E6000FEF72CFB28680421C0F8001500BF0020E5
:102E7000A061E06184F829006061012084F82A00E3
:102E80004046D4E7BC020020E84200002DE9F84F9C
:102E9000054689469246287900EB400101EBC000C7
:102EA000424901EB800400200090606820B14FF49B
:102EB00001712868FFF707FEA06970B1E06950B1A1
:102EC000606820B14FF401712868FFF7FFFD1126FB
:102ED0003046BDE8F88F01200090009838B9C4F85A
:102EE00018A0C4F80C9000206062E06103E0C4F810
:102EF0001090C4F81CA094F8290020B9009810B9CB
:102F0000284600F0C0FA6068002846D14FF4A2714C
:102F10002868FFF7CCFD00BF00BF4FF4927128680E
:102F2000FFF7BEFD80464FF484712868FFF7B8FDB7
:102F300083464FF4A2712868FFF7B2FD0746BBF144
:102F4000000F03D117B9B8F1000FE6D0B8F1000FA8
:102F500000D107B107E02146286800F059FA616AFC
:102F6000A0698842D8D800BF0020A061B8F1000F46
:102F700002D003263046ACE717B10F263046A8E74B
:102F800094F8290020B100212868FFF7ABFD03E089
:102F900004212868FFF7A6FD04E04FF401712868BA
:102FA000FFF794FD0026304693E70000BC020020A6
:102FB0002DE9F04104460F469046207900EB400190
:102FC00001EBC0001C4901EB8005204600F036F8FB
:102FD00018B111263046BDE8F081C5F81480AF6005
:102FE0000020286285F8280000264FF48E712068A2
:102FF000FFF75DFD08212068FFF774FD2946206872
:1030000000F033FE6868A0B92946206800F012FE7F
:1030100008B90F260BE000BF4FF48E712068FFF750
:103020003FFD0028F8D00C212068FFF75BFD002051
:1030300068613046CFE70000BC02002001460879F5
:1030400000EB400202EBC000044A02EB8000406942
:1030500008B1012070470020FCE70000BC020020FE
:1030600010B50249024800F0C7FF10BDE802002079
:10307000002000402DE9F04105460E46174628790C
:1030800000EBC000194901EB80044FF0000894F8F0
:10309000200020B14FF008084046BDE8F0812A79B1
:1030A000134B53F822102868FFF78AFD18B14FF030
:1030B00011084046F1E731462846FDF7CBFE676030
:1030C00030692060606818B1317F2846FEF73AFA0F
:1030D00028680821C0F8001500BF0020A061E06149
:1030E0006061012084F820004046D6E7E802002015
:1030F000184300002DE9F84F04460E461746207984
:1031000000EBC000484901EB80053046FFF744FD65
:1031100020B94FF010084046BDE8F88F4FF0000A84
:10312000686820B14FF404712068FFF7FDFCA869BE
:1031300070B1E86950B1686820B14FF4047120683B
:10314000FFF7F5FC4FF011084046E5E74FF0010AA4
:10315000BAF1000F04D1AF61EE600020E86101E038
:103160002E61EF614FF000084FF488712068FFF77F
:10317000CEFC4FF4A2712068FFF7C9FC2068C0F8AC
:1031800034654FF4A7610F5000BFBAF1000F04D1AE
:1031900000212068FFF7D9FC08E020212068D0F842
:1031A00000220A43C0F8002200BF00BF207900EBD4
:1031B000C0001D4901EB8000406868BB00BF4FF4B0
:1031C00088712068FFF79CFC00904FF4A271206882
:1031D000FFF796FC83464FF492712068FFF790FC4E
:1031E0008146009828B9BBF1000F02D1B9F1000F58
:1031F000E5D00020217901EBC1010B4A02EB8101EE
:103200008861B9F1000F01D04FF00308BBF1000F46
:1032100001D04FF00F0804E04FF404712068FFF76D
:1032200086FC404678E70000E80200202DE9F047E0
:10323000044688469146207900EBC0002A4901EBFC
:1032400080054046FFF7A8FC18B910263046BDE8B7
:10325000F087204600F04AF810B111263046F6E714
:10326000C5F81490C5F8088000264FF490712068C6
:10327000FFF74DFC4FF4AC712068FFF748FC206865
:103280006A69A968C0F844154FF4A9631A5000BFD1
:1032900008212068FFF759FC686818BB00BF4FF48D
:1032A00090712068FFF72CFC82464FF4AC712068C7
:1032B000FFF726FC0746BAF1000F01D1002FEED030
:1032C0000FB10F260BE00C212068FFF73EFC00BF7A
:1032D0004FF4AC712068FFF713FC0028F8D00020F1
:1032E000686100BF3046B2E7E80200200146087975
:1032F00000EBC000044A02EB8000406908B10120E5
:1033000070470020FCE70000E802002070B504468A
:103310000D461646207A05280CD0607A28B10A4856
:103320000AA102682846FEF749FD09A12846FEF7D2
:1033300045FD04E01EB106A12846FEF73FFD2846E4
:10334000FEF751FD70BD00008C00002025730000C9
:103350000D0A0000F8B504460D46E08838B116A005
:103360000090E38816A218A12846FEF727FD207AD0
:1033700005281FD0607A58B1217AA088FEF7BEFFD9
:10338000174951F82060324616A12846FEF716FD6F
:103390002846216800F06EF9A0880021FFF704FAA2
:1033A0000646207A104951F8202033460FA12846BE
:1033B000FEF704FDF8BD00001B5B306D000000004F
:1033C0001B5B313B33316D0025734C6F6773206499
:1033D000726F70706564202825642925730D0A00BA
:1033E0008C00002025730000780000203C25733EEF
:1033F0002025733A2000000001460348814201D194
:10340000024870470020FCE7002000401C0000201C
:1034100070B505460C46A06940B94FF48471284642
:10342000FFF745FB00BFD5F8180570BD4FF4847158
:103430002846FFF73CFB00BFD5F81805C0B2626A0A
:10344000E1688854606A401C606200BFEDE77FB5A8
:1034500004460D46164601208DF80000029501969F
:103460006846D4E9001290477FBD7FB504460D46FB
:10347000164601208DF80000029501966846D4E9B1
:10348000001290477FBD10B504464FF4927120683A
:10349000FFF70DFB4FF484712068FFF708FB002154
:1034A0002068FFF71FFB10BD2DE9F84F8846154631
:1034B000002D35D04FF000090320009000BF08EB2D
:1034C00009012A460020FDF70DF80446A1442D1BF2
:1034D000FCB91448007800B920E0012606B90FE0D5
:1034E00000BF4FF47A7707B906E0DFF83CA04FEA57
:1034F000871B5846D04700BF701E061EF1D100BF83
:103500000098401E0090009818B9002005490870E6
:1035100004E0012003490870002DD0D100BF00BF96
:10352000BDE8F88F5C000020D14300002DE9F05F7A
:1035300005460E4690461F46DDF828904FEA154A8C
:10354000FDF7C6FD83464AEA0B42781C00EA0900F3
:103550000E4941F8202007EA090001EB80042068A9
:1035600065F3C5002060206868F38910206020683A
:1035700066F39F202060206820F00300401C20603C
:10358000206820F004002060BDE8F09F04050020C2
:103590002DE9FC478046894616461C461748876831
:1035A000012201A92046FDF701FDC8B1019800F1F3
:1035B000020A00250AE056F8252050460AF1010AC1
:1035C00038400E490C3141F820206D1CA542F2D341
:1035D0000097224649464046019BFFF7A7FF00BFE0
:1035E000064890F8200430B100BF00BFFEF7B6FED9
:1035F0000028FBD100BFBDE8FC870000F8040020D4
:103600002DE9F04781460C4615469846002608F0FD
:103610000100A0B105E0641C761C39464846FDF760
:1036200035FD2778002FF6D104E06D1E2021484695
:10363000FDF72CFDB5421BD9002DF6D118E01CB1C9
:103640002046FCF793FE064604E06D1E2021484606
:10365000FDF71CFDB54201D9002DF6D105E0641C33
:10366000761C39464846FDF711FD2778002FF6D124
:10367000BDE8F0877047000070B5044640F20C6169
:103680002248226840F82210626840F82210206820
:10369000FEF752FD6068FEF74FFD40F20D611B48DA
:1036A000226840F82210626840F822100420FFF7D8
:1036B0005BFA00251BE0606800BF4FF0A042114696
:1036C00000BFD1F81025C24002F0010212B105B9C5
:1036D00070BD0EE02068FEF70EFD0420FFF744FAEF
:1036E0002068FEF729FD0420FFF73EFA6D1C092D26
:1036F000E1DB00BF6068FEF7FEFC0420FFF734FA50
:103700006068FEF719FD00BFE2E700000007005007
:1037100002781AB90122034B1A7000E000BF00BF03
:10372000704700000C0000207FB50D4B0FCB8DE8DB
:103730000F0000230B4A69460B48FEF777FA044650
:1037400000BF254625B100BF2846FDF741FA00BF5E
:1037500000BF054D281DFFF757FA00BF7FBD0000D1
:10376000C042000011370000B042000001460320B3
:1037700001F001020AB14FF4024001F002020AB165
:1037800048F2012001F004020AB148F20220704719
:103790007FB504460D462E4620788DF8000020792E
:1037A0008DF8040061798DF80510217A8DF80610E6
:1037B000217B8DF80710216902916169039104480A
:1037C00050F82610034850F82620684690477FBDE1
:1037D0002C0000202400002070B586B006460C4660
:1037E0004FF492713046FFF725F908B34FF4927108
:1037F0003046FFF726F94FF482713046FFF71AF989
:10380000B0B9A1683046FFF723F90220A060A16893
:103810003046FFF720F920213046FFF72DF914211B
:103820003046FFF729F9012084F82E0006B070BD5C
:103830004FF482713046FFF7FDF888B34FF4827180
:103840003046FFF7FEF8142204F10C0101A8FCF742
:1038500069FD94F82E0038B92146304600F0C2FCCC
:1038600080F0010084F82E004FF4B0713046FFF76D
:10387000E8F84FF4AE713046FFF7E3F894F8300003
:1038800018B194F82E0000283FD000213046FFF7F1
:10389000F0F80020A06034493046FFF7D9F834E052
:1038A000FFE74FF4A4713046FFF7CBF8207B98B9BF
:1038B000142204F10C0101A8FCF734FD94F8300047
:1038C00018BB00213046FFF7D4F80020A06026493D
:1038D0003046FFF7BDF818E04FF400713046FFF7AF
:1038E000C8F840F20220A0601F493046FFF7B0F848
:1038F000A1683046FFF7AFF808213046FFF7BCF863
:1039000020213046FFF7B8F890E73046FFF78CF8F3
:10391000054605F0020018B101208DF8000017E0FF
:1039200005F0040018B102208DF8000010E005F049
:10393000010018B102208DF8000009E094F82E0073
:1039400018B104208DF8000002E000208DF800007E
:1039500094F8300010B9002084F82F006846D4E9AC
:103960000021904700BF61E702029C012DE9F05F52
:1039700005460F4614461E464FF000084FF0080952
:103980004FF4827A002085F82E00E068FFF70EF9E8
:1039900020B94FF010084046BDE8F09FA3493846D3
:1039A000FFF756F895F82F0038B1A9683846FFF7A9
:1039B00052F84FF011084046EEE706F0040020B937
:1039C00006F0100008B9012000E0002085F82F0063
:1039D0001422214605F10C00FCF7A4FCC6F30010EC
:1039E00085F830006078C7F8880500BF4FF4827111
:1039F0003846FFF726F84FF492713846FFF721F862
:103A00003846314601F0010232B100BF01234FF4C4
:103A1000AA62135000BF06E000BF00234FF4AA6261
:103A2000135000BF00BF01F0020232B100BF0123FA
:103A30004FF4A862135000BF06E000BF00234FF40C
:103A4000A862135000BF00BF00BF2078002862D0DA
:103A5000012877D002283FD0032874D12069FFF7CE
:103A6000A5F818B94FF01008404695E74FF480715B
:103A70003846FEF7FEFF38466268E168FEF7FFFF52
:103A80004FF4A8713846FEF7DCFF4FF4B0713846AA
:103A9000FEF7D7FF4FF4A4713846FEF7D2FF20217E
:103AA0003846FEF7E9FF08213846FEF7E5FF00BF7C
:103AB0004FF4A8713846FEF7BDFF0028F8D04FF448
:103AC000A8713846FEF7BDFF3846A2682169FEF7A7
:103AD000D6FF5748A8605BE038466268E168FEF7A9
:103AE000CEFF2069FFF762F818B94FF01008404682
:103AF00052E73846A2682169FEF7B0FF4FF48451BF
:103B00003846FEF7B6FF40F20220A8602021384672
:103B1000FEF7B2FF3CE038466268E168FEF7AFFFAF
:103B200006F0200080B14FF480713846FEF7A1FF07
:103B30003F48A8604FF4A4713846FEF782FF4FF467
:103B4000A47A09E00DE020E04FF400713846FEF75A
:103B500090FF40F20220A86020213846FEF78CFF3B
:103B600016E038466268E168FEF778FF4FF480514E
:103B70003846FEF77EFF40F20220A8604FF00009B1
:103B800020213846FEF778FF02E04FF0070800BF1B
:103B900000BF06F0080030B92078032803D049465A
:103BA0003846FEF769FF286850B106F0040010B1EE
:103BB0004FF40070A860A9683846FEF74CFF32E069
:103BC00014E04FF492713846FEF734FF70B14FF4B1
:103BD00092713846FEF735FF20213846FEF74CFF3C
:103BE00014213846FEF748FF4FF4827A5146384692
:103BF000FEF720FF0028E4D03846FEF715FF834685
:103C0000002085F82F00BBF1000F04D05846FFF7C5
:103C1000ADFD804606E02946384600F0E3FA08B9D3
:103C20004FF0030800BF4046B6E6000002029C01C8
:103C30000002040070B505460C46666910E004E019
:103C400094F8280008B1002070BD4FF48E7128460A
:103C5000FEF726FF0028F3D02146284600F005F89D
:103C6000206AB042EBD30120EEE770B505460C4662
:103C70004FF48E712846FEF71AFF216AA068465C51
:103C8000206A401C20623046C5F81C0500BF70BD8C
:103C90007FB504460D4600208DF800000295A0680F
:103CA0000190002060616846D4E9001290477FBD12
:103CB0007FB504460D4600208DF800000295A068EF
:103CC0000190002060616846D4E9001290477FBDF2
:103CD00030B58BB01822114905A8FCF723FB00BFB3
:103CE0000F4801904FF4807002900E4803904FF4FB
:103CF0008070049007230C4A01A905A8FCF7A8FFCF
:103D0000044600BF00BF254625B100BF2846FCF78A
:103D10005FFF00BF00BF0BB030BD00009842000045
:103D2000BC000020BC0100202D3D000010B5044661
:103D30002078022804D100BF6068FCF749FF07E043
:103D40002078012804D100BF6068FCF741FF00BF64
:103D500010BD00007CB504460E462078002847D0F0
:103D6000012802D0022856D133E0207A28B9012256
:103D70002A492B48FDF7DEFF4EE0606801782948AC
:103D8000FCF755FF054645B101208DF8000001956F
:103D900068462549096888470AE02248FDF70FFB75
:103DA00030B100208DF8000068461F490968884737
:103DB0001C48FDF704FB1B498988884205D801226D
:103DC00016491748FDF7B6FF02E0012017490870B1
:103DD00022E002208DF80000E068019001220F49E6
:103DE0000F48FDF7A7FF68460F490968884713E0A9
:103DF0000F491048FCF7FAFE28B901220C4908487F
:103E0000FDF7BAFF06E003208DF80000684606497A
:103E10000968884700E000BF00BF7CBD510000205A
:103E200038000020400300204C00002052000020F9
:103E300050000020500300207FB504460D462E465A
:103E400020788DF8000060680190217A8DF80810C4
:103E5000E1680391044850F82610044850F82620E1
:103E6000684690477FBD000014000020100000202D
:103E70002DE9FF4105460C464FF400712846FEF738
:103E800028FE48B34FF492712846FEF709FE18B396
:103E90004FF492712846FEF70AFE4FF4017128464E
:103EA000FEF711FE94F8290018B904212846FEF700
:103EB00019FE02208DF800002846FEF7EBFD039066
:103EC000A1690291E06801900020A061E06168466C
:103ED000D4E90012904737E004212846FEF7F9FDA7
:103EE000002831D04FF484712846FEF7D9FD58B32D
:103EF00021462846FFF78CFA616AA069884223D1DF
:103F0000E06970B1E668676AE069A0612069E06015
:103F10000020E0616062324639462046FFF797FA9A
:103F200012E094F8290018B904212846FEF7DAFDBA
:103F30004FF401712846FEF7C6FD0020A061E2683B
:103F4000616A2046FFF783FA4FF48E712846FEF728
:103F5000A7FDB8B16669206AB04207D294F828007C
:103F600020B921462846FFF780FE0AE04FF48E7103
:103F70002846FEF79CFD606918B161692046FFF78D
:103F800087FE00BF4FF4A2712846FEF789FDA0B15D
:103F90004FF4A2712846FEF78AFD94F8290018B163
:103FA00000212846FEF79EFDA06930B10020A061E7
:103FB000E268616A2046FFF74AFABDE8FF81000027
:103FC0007FB504460D462E4620788DF800006068C7
:103FD0000190217A8DF80810E1680391044850F8A7
:103FE0002610044850F82620684690477FBD000000
:103FF00014000020100000202DE9FF4106460C4669
:104000004FF492713046FEF77BFDC8B14FF49271C8
:104010003046FEF77CFD02208DF800003046FEF7AA
:1040200069FD03903046FEF785FD0290E06801903F
:104030000020A061E0616846D4E9001290472CE0BE
:104040004FF488713046FEF75BFD30B34FF4887152
:104050003046FEF75CFD3046FEF76CFD0546A06974
:10406000A84219D1E06980B1E76820213046FEF707
:1040700066FDE069A0612069E0600020E0613A46E9
:1040800029462046FFF7F1F906E00020A061294605
:104090002046E268FFF7E9F900BF4FF4A27130460D
:1040A000FEF72EFD90B14FF4A2713046FEF72FFDC2
:1040B000A06958B10020A061E0613046FEF73AFDEA
:1040C000054629462046E268FFF7CFF94FF4907184
:1040D0003046FEF715FD90B14FF490713046FEF773
:1040E00016FD0C213046FEF730FD606938B13046D0
:1040F000FEF72EFD054629462046FFF7D9FD4FF471
:10410000AC713046FEF7FCFC70B14FF4AC71304638
:10411000FEF7FDFC606938B13046FEF719FD054633
:1041200029462046FFF7C4FDBDE8FF812DE9FF4F7A
:1041300081B0884616461F46DDE90E4B45464FF0D6
:10414000010A03E0B5FBF6F50AF1010AB542F9D21E
:10415000574500D9BA460BF0010098B994B10BF05D
:104160000200022803D117B93020009001E020207E
:10417000009004E0641EDDE90010FCF787FF0CB13D
:10418000A245F7D3012509E0012F01D97F1E04E0E4
:10419000B8FBF5F9B14500D201E07543F4E700BF83
:1041A00000BFB8FBF5F909FB15880D4810F8091098
:1041B0000198FCF76BFFB5FBF6F5002DF1D10BF084
:1041C000010048B144B104E0641E20210198FCF7CD
:1041D0005DFF0CB1A245F7D305B0BDE8F08F00003C
:1041E0008C43000070B505460C460126207B50B379
:1041F000012830D0022818D0032834D1A0682249E1
:10420000884205D12846FEF740FC216988420AD140
:10421000A06840F20221884206D12846FEF735FC0C
:104220006169884200D000261EE02846FEF72DFC7A
:104230002169884205D12846FEF716FC616988424B
:1042400000D0002610E02846FEF71FFC21698842B6
:1042500000D0002608E02846FEF706FC21698842C7
:1042600000D0002600E000BF00BF56B900BF00200C
:10427000C5F8000500BF00BF0620C5F8000500BF57
:1042800000BF304670BD00000002040000000000C6
:104290000338FDD870470000080000000600000049
:1042A00005000000070000000000000000E0D7014A
:1042B000000000000030004000000000010000008D
:1042C0001600000017000000000098010200000026
:1042D000111213140D0E0F106E7266785F756172F5
:1042E000745F696E69740000F12D00006E7266786B
:1042F0005F756172745F7478006E7266785F756165
:1043000072745F72780000006E7266785F75617219
:1043100074655F696E697400613000006E72667862
:104320005F75617274655F7478006E7266785F7530
:10433000617274655F727800000000000000000088
:104340000338FDD8704700006E7266785F74776935
:104350006D5F696E69740000690500007477696DAE
:104360005F78666572006E7266785F7477696D5FFC
:104370007866657200000000010000000000000087
:104380000000000000000000000000003031323367
:10439000343536373839414243444546FFFFFFFF45
:1043A000FFFFFFFFFFFFFFFFFFFFFFFF0000000019
:1043B000000000000000D60106010000000000001F
:1043C000E9210000E7210000DD21000000000000DD
:1043D0000338FDD870470000600400207F00000013
:1043E000E004002000404040404040404040414107
:1043F00041414140404040404040404040404040BA
:104400004040404040050202020202020202020253
:104410000202020202202020202020202020200250
:1044200002020202020290909090909010101010E0
:10443000101010101010101010101010101010107C
:104440000202020202028888888888880808080810
:1044500008080808080808080808080808080808DC
:104460000202020240000000E54300007761726E24
:10447000696E670064656275670000001B5B313B15
:1044800033306D001B5B306D000000001B5B313B67
:1044900033316D001B5B313B33326D001B5B313BB5
:1044A00033336D001B5B313B33346D001B5B313BA1
:1044B00033356D001B5B313B33366D001B5B313B8D
:1044C00033376D00696E666F000000006572726FB1
:1044D00072000000554152540000000055415254F2
:1044E00045000000505253005457494D0000000051
:1044F0007274745F6C6F675F6261636B656E64009A
:10450000617070007045000000000020BC000000D9
:10451000A00900002C460000BC000020EC2A00008E
:10452000B0090000C043000000000000F04400009B
:1045300060000020D444000000000000DC440000C3
:1045400000000000E444000000000000E844000017
:104550000000000000450000000003037000002080
:104560006800002070000020A00300201800000058
:10457000000000000000000000000000000000003B
:10458000000000000000000000000000000000002B
:10459000000000000000000000000000000000001B
:1045A00000000000000000000000000000200040AB
:1045B000000000000020004000000000000000009B
:1045C00000000000000000000000000000000000EB
:1045D00000000000FF0000000000000000000000DC
:1045E000000000000000000000000000CC440000BB
:1045F0006C440000C4440000744400008444000083
:104600007C4400008C440000944400009C44000062
:10461000A4440000AC440000B4440000BC440000CA
:0C46200000000000000000000090D0032B
:0400000500000201F4
:00000001FF
