:020000040000FA
:10000000A01B0020FD020000050300000703000004
:10001000090300000B0300000D03000000000000B6
:100020000000000000000000000000000F030000BE
:10003000110300000000000013030000150300007E
:1000400017030000170300008507000017030000D6
:10005000C904000017030000170300001703000085
:100060001703000017030000170300001703000028
:100070001703000017030000170300001703000018
:100080001703000017030000170300001703000008
:1000900017030000170300001703000017030000F8
:1000A00017030000170300001703000017030000E8
:1000B000170300001703000000000000000000000C
:1000C00017030000170300001703000017030000C8
:1000D00017030000170300001703000000000000D2
:1000E0000000000000000000000000000000000010
:1000F0000000000000000000000000000000000000
:1001000000000000000000000000000000000000EF
:1001100000000000000000000000000000000000DF
:1001200000000000000000000000000000000000CF
:1001300000000000000000000000000000000000BF
:1001400000000000000000000000000000000000AF
:10015000000000000000000000000000000000009F
:10016000000000000000000000000000000000008F
:10017000000000000000000000000000000000007F
:10018000000000000000000000000000000000006F
:10019000000000000000000000000000000000005F
:1001A000000000000000000000000000000000004F
:1001B000000000000000000000000000000000003F
:1001C000000000000000000000000000000000002F
:1001D000000000000000000000000000000000001F
:1001E000000000000000000000000000000000000F
:1001F00000000000000000000000000000000000FF
:10020000DFF810D000F0DAF800480047F1130000E2
:10021000AFF30080A01B002030B4044654E8000F68
:100220000D4644E80053002BF8D1156030BC7047F0
:1002300030B4044654E8000F40EA010544E8005396
:10024000002BF7D1156030BC704730B4044654E839
:10025000000F00EA010544E80053002BF7D11560B8
:1002600030BC704730B4044654E8000F80EA010502
:1002700044E80053002BF7D1156030BC704730B410
:10028000044654E8000F00EB010544E80053002B3E
:10029000F7D1156030BC704730B4044654E8000F05
:1002A000A0EB010544E80053002BF7D1156030BCEA
:1002B000704770B404464FF0000054E8006F0D68BA
:1002C000AE4207BF44E80023012044E800630E600B
:1002D000002B1CBF0020F0E770BC704730B4044610
:1002E00054E8000F88422CBF451A054644E80053E5
:1002F000002BF5D1156030BC7047000006488047E0
:1003000006480047FEE7FEE7FEE7FEE7FEE7FEE7FA
:10031000FEE7FEE7FEE7FEE7ED0400000102000055
:10032000004870477845000040EA01039B0703D06E
:1003300009E008C9121F08C0042AFAD203E011F824
:10034000013B00F8013B521EF9D27047D2B201E0E6
:1003500000F8012B491EFBD270470022F6E710B5CA
:1003600013460A4604461946FFF7F0FF204610BD23
:10037000421C10F8011B0029FBD1801A704703466C
:1003800011F8012B00F8012B002AF9D1184670470B
:1003900030B50B46014600202022012409E021FA55
:1003A00002F59D4205D303FA02F5491B04FA02F552
:1003B0002844151EA2F10102F1DC30BD064C074DA8
:1003C00006E0E06840F0010394E807009847103425
:1003D000AC42F6D3FFF718FF10460000304600008D
:1003E00010B5C021022001F047F90021032001F0DF
:1003F00043F90021042001F03FF90021052001F01C
:100400003BF90021062001F037F90F21082001F007
:1004100033F90321092001F02FF927210A2001F0E7
:100420002BF924210C2001F027F924210D2001F0C3
:1004300023F97F21102001F01FF910BD10B500F045
:10044000A9F910BD2DE9F047074688461646C24671
:1004500007EB47011B4800EBC109D9F8140020B194
:10046000012811D0022826D11EE0484600F0CAF922
:100470000546B54201D2002405E0344632465146D5
:10048000484600F006FA18E0484600F0BBF9054679
:10049000B54201D2284600E0304604462246514685
:1004A000484600F0F6F908E032465146484600F06A
:1004B000B7F9044601E0002400BF00BF2046BDE8B4
:1004C000F08700003009002010B503494FF04020AC
:1004D00003F0A0F910BD0000040300200148024908
:1004E000086070470090D003B000002010B501F004
:1004F0009BF928B192480088C0F304209149086014
:1005000001F0EEF910B190489049486701F028FADF
:1005100030B18B48E0380068C0F342308C49086045
:1005200001F04CFA28B18B48006820F080708949AE
:10053000086001F063FA48B10020874908604FF075
:100540008041C1F810018249091F086001F084FA56
:1005500018B103207E496431086001F09DFA68B14A
:1005600005207E49086001207C4978310860002020
:100570007A49083108603F20091F086001F0ACFA91
:10058000002855D06E48E0300068754908606C4816
:10059000E4300068091D08606948E8300068091DFA
:1005A00008606748EC300068091D08606448F03056
:1005B0000068091D08606248F4300068091D086081
:1005C0005F48F83000686649203108605C48FC30BC
:1005D0000068091D086063480068091D08606148DB
:1005E000001D0068091D08605E4808300068091D8C
:1005F00008605C480C300068091D086059481030DC
:100600000068574940310860564814300068091D99
:100610000860544818300068091D086051481C30B3
:100620000068091D08604F4820300068091D0860F7
:1006300001F0CCF830B14248CC38006800F04F00EF
:100640004949086001F01EF940B14848006800F0CF
:10065000010018B16FF001004449086001F060F931
:1006600028B14348006840F4806041490860394837
:100670007438006840F4700036497439086000BF6F
:1006800000BF00BFBFF34F8F00BF00BF00BF00BF60
:1006900000BF00BFBFF36F8F00BF00BF00BF354872
:1006A000006800F0004028B93248001D006800F0E2
:1006B0000040E8B301203049086000BF2F480068BF
:1006C0000028FBD015202B49086000BF2B4800688C
:1006D0000028FBD015212748001D016000BF2748D6
:1006E00000680028FBD000202349086000BF234891
:1006F00000680028FBD000BF00BF00BF00BF00BFE4
:10070000BFF34F8F00BF00BF00BF1248F038006832
:1007100000F4E0601A490843001D0E49F0390860F2
:1007200000BF00BF00BFBFF34F8F00BF00BF00E09E
:1007300003E000BF00BF00BFFDE7FFF7CFFE10BD25
:1007400024030010403501400DF0ADBA00C0074051
:100750003C050040FCED00E00C010040105600405C
:1007600020C5004024040010E40E004000040040B6
:100770003C1700400012001004E5014000E4014075
:100780000000FA0510B502490868804710BD000056
:100790001000002010B5124C02202061606111A0F1
:1007A000A0611349E1614FF4007121620021A1624F
:1007B0006162E1620BA0A0640E49E1641021216531
:1007C0000021A1656165E1650BA1E01DFFF7D7FD83
:1007D0000AA12046FFF7D3FD2020A07110BD000024
:1007E000180900205465726D696E616C000000008C
:1007F00090090020900B0020525454005345474765
:100800004552000010B501460A69CB689A4204D8E7
:100810008C68641EE41AA01801E0D41A601E10BD92
:100820002DE9F0470446894617464FF0000AE5686F
:1008300000BFD4F81080A84503D9A8EB0500461ED8
:1008400004E0A5EB0800401CA1680E1AA068401B3C
:10085000B04201D9304601E0A068401B0646BE42C6
:1008600001D2304600E038460646616848193246F3
:100870004946FFF759FDB244B144BF1B3544A06857
:10088000A84200D10025E560002FD2D15046BDE836
:10089000F0872DE9F047044689461546E668A068CA
:1008A000871BAF4208D9616888192A464946FFF775
:1008B0003BFD7019E06010E0B84661688819424657
:1008C0004946FFF731FDA5EB070809EB0701424652
:1008D0006068FFF729FDC4F80C80BDE8F0870000D0
:1008E0000FB4054B10B503A9044A029800F018F89C
:1008F00010BC5DF814FB0000A110000048000020AF
:1009000002E008C8121F08C1002AFAD170477047D8
:10091000002001E001C1121F002AFBD17047000036
:100920002DE9FF4F89B09B460446002506E02528A7
:100930000BD05A460B999047641C6D1C20780028F8
:10094000F5D10DB02846BDE8F08F0027B84601224A
:10095000474900E0074314F8013F203B02FA03F047
:100960000842F7D120782E2819D114F8010F47F04A
:1009700004072A280ED06FF02F022078A0F1300152
:1009800009290CD808EB880102EB410100EB0108B2
:10099000641CF2E70A98641C50F8048B0A902078D3
:1009A0000028CED0642808D0692806D075281ED02B
:1009B0005A460B9990476D1C58E00A994FF00A0966
:1009C00001C90A91002802DA40422D2102E03905CE
:1009D00004D52B218DF82010012103E0F90704D064
:1009E0002021F7E78A4608AE0DE00021FAE70A99D0
:1009F0004FF00A0901C90A91F7E74946FFF7C8FC19
:100A0000303106F8011D0028F7D1ADEB060000F1EA
:100A10002009780701D44FF00108C84502DDA8EB92
:100A2000090000E000208046002706E008A85A469A
:100A3000C05D0B9990476D1C7F1C5745F6DB04E0A9
:100A400030205A460B9990476D1CB8F10001A8F16F
:100A50000108F5DC05E016F8010B5A460B999047A2
:100A60006D1CB9F10001A9F10109F4DC641C65E712
:100A70000928010010B572B600BF01F007FF00BFE2
:100A800000BF01F0D1FC0028FBD100BF00BF1E4910
:100A90001E4A891AC908012242EA01401CA101F03C
:100AA0004DFE00BF1D48006800F0010000B100BE0F
:100AB00000BF1549154A891AC908022242EA0140B5
:100AC00017A101F03BFE00BF00BF00BF00BF00BF89
:100AD000BFF34F8F00BF00BF00BF1048E43800686D
:100AE00000F4E06012490843001D0C49E439086035
:100AF00000BF00BF00BFBFF34F8F00BF00BF00BFEC
:100B000000BF00BFFDE70000604600004046000057
:100B1000466174616C206572726F7200F0ED00E0E6
:100B200053797374656D20726573657400000000FD
:100B30000000FA053EB504460020009001900290A6
:100B400002946A46002144F20100FFF793FF3EBD84
:100B500070B504460D46204600F086FA28B12946B5
:100B6000204600F075FA002070BD0520FCE7034622
:100B700009B90E20704712B1501E104008B109206B
:100B8000F8E71960501E988000209860D86000BF78
:100B9000F0E770B504460D46204600F065FAA188DE
:100BA000884205D82946204600F071FA002070BD21
:100BB0000420FCE72DE9F04188B004460E461746B4
:100BC00098462B4807601EB9072008B0BDE8F081A1
:100BD000B08882B227483168FFF7C9FF054600BFD9
:100BE000284600B1F1E700BFB08982B22248B1685F
:100BF000FFF7BDFF054600BF284600B1E5E700BF8F
:100C000020221E496846FFF78FFB60690690207C12
:100C100008B1012000E000208DF814008DF81C8040
:100C2000607C08B10E2000E000208DF81500E0681F
:100C30000290A06803902068019060680090104ABC
:100C40006946104801F08AF8054600BF284600B101
:100C5000BBE700BF00200C4908702068401C28B189
:100C600001220A49074801F0BFF8AEE70020ACE7CF
:100C7000400000204003002050030020A844000052
:100C8000E93E00002C000020460000204500002026
:100C90002DE9F041054629461448FFF77AFF06463C
:100CA00006BB134C002720781249085C20B1201D98
:100CB00002F05EFB074608E020780E49085C20B988
:100CC00004F10C0002F0FCF9074600BF57B90A49CD
:100CD0000648FFF73DFF28B901220749044801F003
:100CE000A5F806463046BDE8F0810000500300201C
:100CF0002C0000200C0000204400002000B502461B
:100D000000F006F800BD00B5024600F00BF800BD8B
:100D100072B603480068401C014908607047000033
:100D20002800002004480068401E03490860084667
:100D3000006800B962B670472800002070B505460B
:100D40000C462068401C28B1206801F044FA206855
:100D500001F013FA6068401C18B10021606801F0CE
:100D6000F2F92868A169C0F8241500BF617D227DD1
:100D7000286841EA0203C0F86C3500BFD4E90012CC
:100D8000286801F0FEFE207D012814D1A068401CD7
:100D900018B10021A06801F0D6F9E068401C28B124
:100DA000E06801F018FAE06801F0E7F9D4E90221FF
:100DB000286801F0CFFE70BD70B505460C4620686E
:100DC000401C28B1206801F011FA206801F0E1F917
:100DD0006068401C18B10021606801F0C1F9286802
:100DE000A169C0F8241500BF617D227D286841EA11
:100DF0000203C0F86C3500BFD4E90012286801F086
:100E0000F8FE207D012814D1A068401C18B10021F3
:100E1000A06801F0A5F9E068401C28B1E06801F085
:100E2000E5F9E06801F0B5F9D4E90221286801F09C
:100E3000C1FE70BD002114E00C48D0F8102401233D
:100E400008E000BFD0680079884201D1002303E0A8
:100E5000D0680268002AF4D100BF0BB10846704781
:100E6000491C0A29E8DB4FF0FF30F8E7F8040020BE
:100E70007CB500240DE00848055D032600200090A5
:100E80003346024601460190284601F00CF900BFA6
:100E9000641C042CEFD37CBDE443000010B5044671
:100EA00004F0010008B100F011F804F0020008B1EC
:100EB000FFF7DEFF10BD000010B504460249085DD3
:100EC000012101F0A9F910BDE04300007CB5002428
:100ED0000CE00948055D0020009003460122114600
:100EE0000190284601F0DFF800BF641C042CF0D309
:100EF00000F004F87CBD0000E043000010B50024C1
:100F000003E02046FFF7D8FF641C042CF9D310BD82
:100F10002DE9F84F04460D461646A71C4FF0010870
:100F20000020FFF7EBFE3048406828602E484068FC
:100F30002D498968411A2D480068401CA0EB010921
:100F400015E001212A4800F003FE00F0EBF982468B
:100F50005146274800F0FCFD234840682249896833
:100F6000411A22480068401CA0EB010900BF4F4510
:100F7000E7D8B8F1000F30D00021009176B1009988
:100F800021F00301491C0091009921F00401091D81
:100F90000091009964F3891100910DE0009921F00E
:100FA0000301891C0091009921F00401091D0091A1
:100FB000009964F39F5100910B4949680B4A1268EC
:100FC0001140094A0C3202EB810000990160064988
:100FD000496839440C3A516000BF0020FFF793FE86
:100FE0004046BDE8F88F0000F80400206C000020A7
:100FF0001409002070B504460D460A2D03D10D21B9
:101000002046FFF7F7FFA168481CA0602068455400
:10101000D4E90110884202D3204600F03EFF70BDA3
:101020000448806803494968884201D1012070471B
:101030000020FCE7F804002010B50021034800F070
:101040009DFD044684F3100010BD0000140900202B
:1010500070B504460D462A460021204600F00EF8E1
:10106000A068401CA06070BD01468A68C868801AEC
:10107000704701468A68C868801A704710B583684F
:101080000B44848823400468E35C137010BDC2687D
:1010900083881A4003689954C268521CC260704722
:1010A00070B504460D46E0B2FFF7F2FD204670BD74
:1010B0002DE9FC5F83460E4691461F46DDE90C454F
:1010C000002E01DA704200E0304682464FF00108FF
:1010D00003E09AFBF9FA08F10108CA45F9DA474535
:1010E00000D9B84634B1002E03DB05F00400042813
:1010F00000D1641E05F0020000B167B105F00100E7
:1011000048B944B104E0641E20215846FFF772FF3D
:101110000CB1A045F7D3002E05DA76422D215846B2
:10112000FFF768FF07E005F00400042803D12B2136
:101130005846FFF75FFF05F0020002280DD105F0C9
:10114000010050B94FB944B104E0641E3021584643
:10115000FFF750FF0CB1A045F7D33B464A46314656
:101160005846CDE9004503F0ABF8BDE8FC9F000010
:101170002DE9F04104460E464FF48E71206801F0CF
:10118000E2FC4FF4A271206801F0DDFC1A492068EE
:1011900001F0E8FC206801F03FFD0546374628468F
:1011A0003946002804DB4A07130E144A135408E09A
:1011B0004A074FEA126C124A00F00F031B1F02F895
:1011C00003C000BF00BF206801F026FD0546284689
:1011D00000280DDB00BF00BF00F01F02012191407D
:1011E0004209920002F1E022C2F8001100BF00BFE4
:1011F00000BF00BFBDE8F0818000020000E400E015
:1012000018ED00E02DE9F04104460E464FF48871D8
:10121000206801F0C8FC4FF49071206801F0C3FC15
:101220004FF49271206801F0BEFC4FF4A271206867
:1012300001F0B9FC4FF4AC71206801F0B4FC1B491B
:10124000206801F0C0FC206801F0EAFC0546374642
:1012500028463946002804DB4A07130E144A135463
:1012600008E04A074FEA126C124A00F00F031B1FF6
:1012700002F803C000BF00BF206801F0D1FC0546A2
:10128000284600280DDB00BF00BF00F01F0201212F
:1012900091404209920002F1E022C2F8001100BF21
:1012A00000BF00BF00BFBDE8F08100001003420096
:1012B00000E400E018ED00E030B5024600201378AD
:1012C000C3F38003D3B1137803F00303012B02D0DF
:1012D000022B10D107E01388C3F383139B1C0C6807
:1012E00023440B6008E00B680225146805EB945456
:1012F00023440B6000E000BF00BF012030BD70B58B
:101300000021084601F082FA044600BF254625B1B7
:1013100000BF2846FFF70EFC00BF00BF01F070F8C9
:1013200070BD00002DE9FF4100272E4800F009FCA8
:101330002C48001F00F005FC2B48806803902B48C8
:1013400005680398284028490C3101EB800800BF4C
:1013500003A94046FFF7B0FF30B103982840224967
:101360000C3101EB800800E000E0F1E700BF002451
:101370000AE00398411C284003911B490C3151F8A5
:1013800020004DF82400641C022CF2D3009800F0D9
:10139000030001280DD0022814D1BDF806700421E5
:1013A000009801EB9050401E039901EB90000390D0
:1013B00009E0BDF806700098C0F383100399084453
:1013C000039000E000BF00BF0648001F00F0B2FB22
:1013D000064616B1044903988860384604B0BDE853
:1013E000F081000010090020F80400206C000020AB
:1013F0001CB5FFF784FF0320FFF750FD02F032FD1C
:1014000003210846002213461446154600BF4FF03C
:10141000A0473E4642EA430747EA800747EA0427D7
:1014200047EA054C06F5E06747F821C000BF00BF5A
:1014300002F05EFA00F01AF90121002000F0DAF85B
:10144000FEF7CEFF4FF47A7000F020FC1F49204ACF
:10145000891AC908032242EA01401EA101F06EF96F
:1014600000BF00BF00F0E0FF0028FBD100BF2CE070
:1014700000BF032000BF4FF0A042114600BFD1F8CB
:101480001025C24002F00102002AF2D1694601A8EB
:1014900000F038F816A0DDE90021FFF721FA32202C
:1014A00000F0F4FB112000BF4FF0A0431946D1F823
:1014B0000425012383409343C1F808350123834069
:1014C0001340C1F80C3500BF00BFD1E760460000F3
:1014D000404600006D6178333031303220657861EC
:1014E0006D706C6520737461727465640000000037
:1014F0007265643D20202564202069723D202564AA
:101500000D0A00002DE9FF4104460D460020206031
:101510002860012100F06EF80121084600F06AF809
:1015200007200390002031490870012303AA5721A6
:1015300000902F4800F0FCFB074600BFB846B8F10A
:10154000000F04D000BF4046FFF7F4FA00BF00BF11
:1015500000BF264800780028FBD0002023490870EF
:10156000062301AA5721224800F0D0FB074600BFFE
:10157000B846B8F1000F04D000BF4046FFF7DAFAD2
:1015800000BF00BF00BF194800780028FBD09DF8BD
:10159000046036042068304420609DF805603602FF
:1015A0002068304420609DF8066020683044206048
:1015B0009DF8076036042868304428609DF808606C
:1015C00036022868304428609DF809602868304455
:1015D00028602068C0F3110020602868C0F3110063
:1015E0002860012004B0BDE8F08100000000002068
:1015F000C0430000FEB505460F460295002019497C
:101600000870012302AA57210090174800F090FBB0
:10161000044600BF264626B100BF3046FFF78AFACF
:1016200000BF00BF00BF0F4800780028FBD000209B
:101630000C490870012301AA57210B4800F066FBF2
:10164000044600BF264626B100BF3046FFF772FAB7
:1016500000BF00BF00BF034800780028FBD09DF802
:101660000400FEBD00000020C043000010B5402172
:10167000092000F001F810BD2DE9FC4104460D469B
:101680008DF804408DF8055000200D4908700223A4
:1016900001AA572100900B4800F04AFB064600BF04
:1016A000374627B100BF3846FFF744FA00BF00BFF6
:1016B00000BF034800780028FBD0BDE8FC81000093
:1016C00000000020C04300002DE9FF4F87B0044612
:1016D00091461E46A2462546BAF806009AF805101D
:1016E0004843001F0690BAF806B0301DB0FBFBF06F
:1016F0000590301DB0FBFBF10BFB11000490D9F8F5
:10170000000081190698814202D90698801B01E0E9
:10171000D9F800000746C9F8007003E02D68059865
:10172000401E059005980028F8D103900498ABEB73
:101730000008B84501D9384600E04046804623E01D
:101740000399089808440290281D049908440190C0
:10175000149828B14246DDE90110FEF7E5FD04E0EA
:101760004246DDE90101FEF7DFFD002004902D680F
:10177000A7EB0807039840440390BB4501D93846BE
:1017800000E05846804600BF002FD9D10BB0BDE81D
:10179000F08F000070B503460C469CB101F05AF87A
:1017A000054600220AE0084800EB820108881E680E
:1017B000B04202D11A60002070BD521CAA42F2D37E
:1017C0000520F9E70020F7E7000000001448006852
:1017D000401C38B913480178124808300078C0F32B
:1017E000031205E00E4801684FF08050D0F8342114
:1017F000062912D1032A06D0042A06D0052A06D0CB
:10180000062A08D105E0012070470120FCE70120ED
:10181000FAE70120F8E70120F6E70020F4E70000EE
:1018200030010010E00F00F014480068401C38B987
:1018300013480178124808300078C0F3031205E01D
:101840000E4801684FF08050D0F83421062912D19B
:10185000032A06D0042A06D0052A06D0062A08D173
:1018600005E0012070470120FCE70120FAE7012094
:10187000F8E70120F6E70020F4E70000300100104F
:10188000E00F00F014480068401C38B91348017894
:10189000124808300078C0F3031205E00E480168D2
:1018A0004FF08050D0F83421062912D1032A06D0F7
:1018B000042A06D0052A06D0062A08D105E0012010
:1018C00070470120FCE70120FAE70120F8E701203A
:1018D000F6E70020F4E7000030010010E00F00F010
:1018E0000E4802780D4808300078C0F30311062A2C
:1018F00012D1032906D0042906D0052906D00629CD
:1019000008D105E0012070470020FCE70020FAE73D
:101910000020F8E70020F6E70020F4E7E00F00F0F1
:101920000E4802684FF08050D0F83411062A12D1C8
:10193000032906D0042906D0052906D0062908D196
:1019400005E0002070470020FCE70020FAE70120B6
:10195000F8E70120F6E70020F4E70000300100106E
:1019600014480068401C38B9134801781248083000
:101970000078C0F3031205E00E4801684FF0805074
:10198000D0F83421062912D1032A06D0042A06D021
:10199000052A06D0062A08D105E00120704701205B
:1019A000FCE70120FAE70120F8E70120F6E7002034
:1019B000F4E7000030010010E00F00F00E4802785C
:1019C0000D4808300078C0F30311062A12D103290C
:1019D00006D0042906D0052906D0062908D105E03D
:1019E000012070470020FCE70020FAE70020F8E71C
:1019F0000020F6E70020F4E7E00F00F0144800684C
:101A0000401C38B913480178124808300078C0F3F8
:101A1000031205E00E4801684FF08050D0F83421E1
:101A2000062912D1032A06D0042A06D0052A06D098
:101A3000062A08D105E0012070470120FCE70120BB
:101A4000FAE70120F8E70120F6E70020F4E70000BC
:101A500030010010E00F00F00E4802780D48083009
:101A60000078C0F30311062A12D1032906D00429F5
:101A700006D0052906D0062908D105E001207047C7
:101A80000020FCE70020FAE70020F8E70020F6E756
:101A90000020F4E7E00F00F00E4802780D4808300F
:101AA0000078C0F30311062A12D1032906D00429B5
:101AB00006D0052906D0062908D105E00120704787
:101AC0000020FCE70020FAE70020F8E70020F6E716
:101AD0000020F4E7E00F00F014480068401C38B91B
:101AE00013480178124808300078C0F3031205E06B
:101AF0000E4801684FF08050D0F83421062912D1E9
:101B0000032A06D0042A06D0052A06D0062A08D1C0
:101B100005E0002070470020FCE70120FAE70120E3
:101B2000F8E70120F6E70020F4E70000300100109C
:101B3000E00F00F010B504460021204600F013F835
:101B400010BD10B504460121204600F022F810BD5A
:101B5000F8B504460D466A4629462046FEF78FFB37
:101B600006460098F8BDF8B504460D466A46294673
:101B70002046FEF76AFB06463046F8BDF8B5044637
:101B80000D466A4629462046FEF746FB0646304685
:101B9000F8BDF8B504460D466A4629462046FEF7CC
:101BA00047FB06460098F8BDF8B504460D466A4660
:101BB00029462046FEF770FB06460098F8BD70B532
:101BC000044600260020FFF799F820680068616845
:101BD000884215D920680068401E2268106001788C
:101BE000204600F02FF80646207A21680978401A2E
:101BF000C5B220680079A84201DA2068057100BFEB
:101C00000020FFF780F8304670BD0246D068081A01
:101C1000138AB0FBF3F0C0B2704770B504460D46AE
:101C20002E460020FFF76AF831462046FFF7EDFF09
:101C300021680A68511C2368196010700020FFF7A2
:101C400062F870BD0246138AD06801FB030070473A
:101C500010B5014600BF09B90E2010BD00BF087ABB
:101C60000B79C01AC2B2D1E90030186005E00868EB
:101C70000368581C0C6820601A70101EA2F1010342
:101C8000DAB2F4D10B68187100BFE6E72DE9F04134
:101C900004460CB9BDE8F08100BF4FF47A7505B970
:101CA00004E0054FAE013046B84700BF601E041E79
:101CB000F3D100BFEEE70000A14300002DE9F0479B
:101CC00004460D461646984627780D4840F827608A
:101CD0000C4840F82780687B10B1284601F00EFDC3
:101CE0004FF000090EB1084800E0002002463B46D4
:101CF0002946201D00F0DCFF81464846BDE8F087FC
:101D00001800002020000020953700002DE9F04148
:101D100004460D4616461F464FF000083B46324625
:101D20002946201D01F056F880464046BDE8F08166
:101D30002DE9F84304460D4616461F46DDF820807F
:101D40004FF000093B4632462946201DCDF8008061
:101D500001F058F881464846BDE8F8832DE9F04186
:101D600088B004460F46154626781A4840F8265093
:101D70001949386941F82600787F1849885520228A
:101D800039466846FEF7D0FA04964FF000082078EE
:101D90001249085C50B10DB1114800E00020024624
:101DA0006946201D01F0A8F980460EE020780B4915
:101DB000085C50B90DB10B4800E0002002466946AE
:101DC00004F10C0001F060F88046404608B0BDE820
:101DD000F081000004000020080000200C0000201A
:101DE00055410000CD3F00002DE9F04104460D466D
:101DF0001646002720780C49085C30B13246294647
:101E0000201D01F0B9F907460AE020780649085C70
:101E100030B93246294604F10C0001F079F8074642
:101E20003846BDE8F08100000C0000202DE9F041AB
:101E300004460D461646002720780C49085C30B150
:101E400032462946201D01F033FA07460AE0207881
:101E50000649085C30B93246294604F10C0001F00D
:101E6000E9F807463846BDE8F08100000C00002084
:101E70000FB438B50446059810B938BC5DF814FBAA
:101E80000020009006A800906A462046059900F0C0
:101E900012F80020009000BFEFE770B50446A0687C
:101EA00000B970BDD4E90403A268216898470020F6
:101EB000A06000BFF5E72DE9FC5F82460D461446A1
:101EC0000DB9BDE8FC9F00BF2E786D1C06B9E1E09E
:101ED000252E70D100274FF0010900BF2E782B2E40
:101EE0000CD02D2E02D0302E0CD103E047F001078C
:101EF0006D1C0AE047F002076D1C06E047F004077E
:101F00006D1C02E04FF0000900BF00BFB9F1000FE7
:101F1000E4D14FF0000800BF2A2E06D12168081D29
:101F20002060086880446D1C0DE02E78302E01DBA7
:101F3000392E00DD07E06D1CA6F1300008EB8801AA
:101F400000EB4108E8E700BF4FF0000B2E782E2E83
:101F500010D16D1C00BF2E78302E01DB392E00DD34
:101F600007E06D1CA6F130000BEB8B0100EB410B81
:101F7000F1E700BF2E7800BF6C2E01D0682E02D191
:101F80006D1C2E7800E000E0F6E700BF692E21D03E
:101F900008DC252E6DD0582E39D0632E0CD0642E3F
:101FA0006CD116E0702E4CD0732E3ED0752E1FD003
:101FB000782E63D12AE065E02168081D2060D1F801
:101FC000009009F0FF00019050460199FFF712F8C8
:101FD00055E000BF2168081D2060D1F800905B46E5
:101FE0000A2249465046CDE90087FFF761F846E0EE
:101FF0002168081D2060D1F800905B460A224946FE
:102000005046CDE9008702F05BF938E000BF216857
:10201000081D2060D1F800905B46102249465046CA
:10202000CDE9008702F04CF929E02168081D206005
:10203000086801903B4642465046019901F022FB58
:102040001DE02168081D2060D1F800903021504625
:10205000FEF7D0FF78215046FEF7CCFF0020082184
:102060000B461022CDE900104946504602F028F9EF
:1020700005E025215046FEF7BDFF00E000BF00BF90
:102080006D1C03E031465046FEF7B4FF2878002867
:102090007FF41AAF00BF9AF80C0010B15046FFF75A
:1020A000FCFE00BF0DE7F0B5DDE9054500BF4FF0D0
:1020B000A0473E4641EA420747EA830747EA04272A
:1020C00047EA054C06F5E06747F820C0F0BDF0B5DB
:1020D000DDE9054500BF4FF0A0473E4641EA420713
:1020E00047EA830747EA042747EA054C06F5E06715
:1020F00047F820C0F0BDF0B5DDE9054500BF4FF061
:10210000A0473E4641EA420747EA830747EA0427D9
:1021100047EA054C06F5E06747F820C0F0BDF0B58A
:10212000DDE9054500BF4FF0A0473E4641EA4207C2
:1021300047EA830747EA042747EA054C06F5E067C4
:1021400047F820C0F0BD7CB505460C460020009045
:1021500023460246014601902846FFF7B8FF7CBDA2
:102160007CB505460C4600200090234602460146F9
:1021700001902846FFF7BFFF7CBD1CB50446002038
:10218000009003460122114601902046FFF79FFF71
:102190001CBD1CB5044600200090034601221146D8
:1021A00001902046FFF7A7FF1CBD00BF4FF0A041E4
:1021B0000A46012303FA00F1C2F80C1500BF70476C
:1021C00000BF4FF0A0410A46012303FA00F1C2F814
:1021D0000C1500BF704700BF4FF0A0410A46012315
:1021E00003FA00F1C2F8081500BF704700BF4FF0B6
:1021F000A0410A46012303FA00F1C2F8081500BF06
:10220000704700BF4FF0A0410A46012303FA00F1D6
:10221000C2F8081500BF704710B561B900BF00BF14
:102220004FF0A0421346012404FA00F2C3F80C2533
:1022300000BF00BF0CE000BF00BF4FF0A04213463C
:10224000012404FA00F2C3F8082500BF00BF00BF54
:1022500010BD000070B504460E46FEF7EBFD0546C6
:10226000681C08B9284670BDE8B2E168087100BF73
:102270000C48D0F8100430B90A48C0F810440020C7
:10228000E16808600BE00748D0F81004C0680068F7
:10229000E16808600348D0F81004C068046028466C
:1022A000E1E70000F8040020704710B5FEF7C6F81B
:1022B00010BD704738B504460D4604484023044A13
:1022C00029460090204600F005F838BD2D35000065
:1022D000600300202DE9F04F93B082460E4617466A
:1022E0009846DDF87090304600F0ABFB18210DA841
:1022F000FEF733F80D97CDF83880CDF848900025DB
:102300002B46082207A9304600F0B8FB082509989B
:102310000A90BDF82000ADF82C00BDF82200ADF801
:102320002E0000208DF83100079800F003000128EE
:102330001BD107984FEA902B0798C0F3C2008DF885
:1023400030000798C0F38314A2002B4601A9304641
:1023500000F094FB05EB84050DA80AAB224601A909
:102360000090584600F0ACFA27E0079800F0030010
:10237000022822D107984FEA905B0798C0F3C20069
:102380008DF8300000BFBBF1080F01D2584600E0C5
:10239000082004462B46224605A9304600F06EFB75
:1023A0002544ABEB040B0DAB0AAA214605A800F0AF
:1023B000CFF9BBF1000FE6D100BF304600F04FFB74
:1023C00013B0BDE8F08F000010B502460B4C04EBD3
:1023D000C203012906D0022906D0032906D0042908
:1023E00008D105E0022007E0042005E0187903E0A9
:1023F000587901E0002000BF00BF10BD404600003A
:1024000010B54FF0FF34FFF750FF04210548FFF7E8
:1024100021FF044600BF01200249C968487100BF7E
:1024200010BD0000304600002DE9F04F8BB0FEF7E4
:10243000F7FD18B100200BB0BDE8F08F0020B549C2
:10244000C1F8180400BF00BF00BFBFF34F8F00BF2B
:1024500000BF00BF084680680A90AF4804680A9829
:1024600020400C3101EB800A002500260020069058
:1024700000BF0AA95046FEF71FFFA8B1A548D0F833
:10248000180488B9A34840680A99884205D8A14829
:102490004068A04988600020CDE70A9820409D4907
:1024A0000C3101EB800A00E000E0E2E700BF00270A
:1024B0000BE00A98411C20400A9196490C3151F8D2
:1024C000200007A941F827007F1C022FF1D30798AD
:1024D00000F0030002287CD10798800D0590502160
:1024E0000798B1EB905F02DD0798800D00E0502067
:1024F0008146079869F39F50079009F108000490FE
:102500000798C0F3C20006908448049900F03CFA92
:102510000546002D5BD0284600F093FA334608228A
:1025200007A9284600F0BBFA08360A982040611C2B
:10253000081A4FEA8008C14535D9B8F1000F06D016
:102540000A98204073490C3101EB800001E071488A
:102550000C300390B8F1000F01D0404600E048462F
:1025600000F0FF0BB8F1000F02D06A480C3000E019
:1025700000200290B8F1000F02D0A9EB080000E0A3
:102580000020C0B2019033465A462846039900F015
:1025900086FA5E44029828B133462846DDE90121D7
:1025A00000F07DFA0CE00A9820405A490C3101EB0A
:1025B000800B33464A465946284600F070FA00BF61
:1025C0000598C01C0A9901EB90000A9000BF44E0F6
:1025D000FFE7079800F0030001283ED10798C0F3F9
:1025E0008310062803DA0798C0F3831000E0062062
:1025F000079960F3891107910798C0F3831000F1E0
:1026000002080798C0F3C20006904FEA88014348C9
:1026100000F0BAF90546FDB1284600F012FA33463B
:10262000082207A9284600F03AFA083600270EE0EB
:102630000A98421C20400A92364A0C3202EB800172
:1026400033460422284600F02AFA361D7F1C0798DC
:10265000C0F38310B842EBD800BFC5B32D48D0F803
:102660001084D0F8180418B1284600F0F8F92DE0CD
:1026700019E04FF0000900BFD8F80C00407901289C
:1026800000D18146B9F1000F08D000BFD8F8000092
:10269000294602684046904700BF00BFD8F80C00AA
:1026A000D0F8008000BFB8F1000FE2D1284600F05A
:1026B000D6F90020FEF722FB1648D0F8180410B90E
:1026C00014490A9888600020FEF71DFB1DE0FFE713
:1026D0001048D0F810840AE0C146D9F8000081689B
:1026E0004846884700BFD8F80C00D0F80080B8F101
:1026F000000FF1D10A490B4A891AC908022242EA9D
:10270000014009A100F01AF800BFFEF789FC80F033
:10271000010090E6F80400206C00002068460000EC
:1027200060460000404600004261636B656E647362
:1027300020666C75736865640000000070B504461F
:102740000D4600231A462946204600F063FF70BD5F
:102750002DE9F05F07460E4690461D46082E01D92A
:10276000BDE8F09F95F80C9000202873294640465C
:1027700000F032FE00240CE0B44205D23A5D1DA107
:102780002846FFF775FB03E01CA12846FFF770FB06
:10279000641C082CF0D31AA12846FFF769FB00241B
:1027A0001DE0B44216D217F804A0BAF17E0F09DC7E
:1027B000FDF7B6FD006810F80A0000F03E0008B111
:1027C000504600E02E2083465A460EA12846FFF7C9
:1027D0004FFB03E00CA12846FFF74AFB641C082CC2
:1027E000DFD301222946404600F0D2FD85F80C9047
:1027F00000BFB5E7202530327800000020202000FF
:102800007C00000025630000200000002DE9F0415D
:1028100006460F4600BF002009490870094800F02D
:1028200018F9044614B12046BDE8F081064800F0CE
:1028300047F906480649401AC5080020F4E7000099
:10284000F804002068460000E844000068460000E4
:102850004046000002480349401AC0087047000083
:10286000684600004046000013B50C462146684605
:10287000FEF790FF28B90448009A00EBC2010868EF
:102880001CBD0020FCE700004046000070B50B486E
:10289000D0F810440120094908700CE000BF012065
:1028A000E168487100BF2546286841682846884786
:1028B00000BFE0680468002CF0D170BDF80400206F
:1028C0002DE9FF4707460C46164698460C9D95F89D
:1028D0000C90002028732946404600F07DFD072E0D
:1028E00047D2DFE806F004090F161F2A37003946E1
:1028F0002846FFF7BDFA3DE0394628462268FFF733
:10290000B7FA37E039462846D4E90023FFF7B0FA92
:1029100030E0A068009039462846D4E90023FFF74C
:10292000A7FA27E0D4E90201CDE90001394628469B
:10293000D4E90023FFF79CFA1CE0D4E902122069D5
:10294000CDE90012029039462846D4E90023FFF76A
:102950008FFA0FE0D4E90223D4E90410CDE9002373
:10296000CDE9021039462846D4E90023FFF780FA62
:1029700000E000BF00BF00222946404600F008FDED
:1029800085F80C90BDE8FF872DE9F84F07468A4689
:10299000388AA0F104080AF104004044401EB0FB4C
:1029A000F8F0C0B200903846FFF709F9044614B9B0
:1029B0000020BDE8F88F0020207101216171A4F88A
:1029C000068025460098A0F1010B2C462F604FF0A1
:1029D000000912E03846FFF7F2F8064636B1607992
:1029E000401C60712E603760354604E0204600F0E0
:1029F00008F80020DDE709F10109D945EAD32046AE
:102A0000D7E72DE9F05F0446274697F8058026466C
:102A1000A8F1010B002501E036686D1C5D45FBD374
:102A2000D6F800A02646002507E0D6F800903146EB
:102A30005046FFF7F2F84E466D1C4545F5D3BDE80C
:102A4000F09F70B5044625460121281DFFF780F848
:102A500070BD10B504462046FFF7FAF810BDF8B572
:102A6000044626460121301DFFF79EF800906D4672
:102A7000287810B92046FFF7C4FFF8BD2DE9FC41C6
:102A800005460E4614461F46019401203B4601AA06
:102A9000314600902846FEF717FEBDE8FC812DE97F
:102AA000FC4105460E4614461F46019400203B4655
:102AB00001AA314600902846FEF706FEBDE8FC81DB
:102AC0000021826891608268116182685161826828
:102AD000D160826851608268116070470021C0F83F
:102AE000001570470521C0F8001570470146D1F860
:102AF000C404C1F8C40470470246505808B101200C
:102B000070470020FCE708B500224250425800926E
:102B100000BF08BDC0F808137047C0F80413704721
:102B2000C0F8001270470122425070470146D1F8A8
:102B30008004C1F8800470470246505808B1012053
:102B400070470020FCE708B500224250425800922E
:102B500000BF08BDC0F80815C0F810257047C0F8C0
:102B600008137047C0F8041370470246D2F80403F4
:102B7000084008B1012070470020FCE701224250C4
:102B80007047C0F81425C0F80C1570470146D1F8FD
:102B90008004C1F8800470470246505808B10120F3
:102BA00070470020FCE708B50022425042580092CE
:102BB00000BF08BDC0F808154FF4A2631A50704753
:102BC000C0F808137047C0F804137047014640F27C
:102BD0003C5040587047D0F800228A43C0F8002289
:102BE0007047012242507047014640F24C50405815
:102BF000704740F20C53195040F214531A5070476A
:102C000070B5044604B970BD024EA5012846B04710
:102C100000BFF8E7514400000146080B40B270477E
:102C20000146080B40B270470146080B40B270479E
:102C3000014601F06040B0F1005F01D10120704712
:102C40000020FCE72DE9F04107460E46384600F02B
:102C500015FC0446BCB14FF000080020FEF74EF80A
:102C6000207910B14FF0010802E0266001202071A8
:102C70000020FEF748F8B8F1000F03D011252846D0
:102C8000BDE8F08100BF00252846F9E770B504468D
:102C90002079C0EB0010054901EB8005266830461D
:102CA000FFF720FF022085F82E0070BD04030020EE
:102CB0002DE9FF4F83B006460D4692463079C0EBB2
:102CC0000010404901EB800494F82E0020B1082741
:102CD000384607B0BDE8F08F32793B4B53F82210ED
:102CE0003068FFF7AFFF10B111273846F1E7C4F89D
:102CF00000A0069860600020A06084F82D0084F891
:102D0000310084F83000687B84F838000020062108
:102D1000CDE900100323002211462868FFF7FFF9D0
:102D200000200621CDE90010032300221146686827
:102D3000FFF7F5F9D6F80080D5E90001C8F80805D5
:102D4000C8F80C1500BFA868C8F8240500BF2068A3
:102D500088B33068FFF768FF814695F80CB04846A5
:102D60005946002804DB4A07130E184A135408E09A
:102D70004A074FEA126C164A00F00F031B1F02F8B5
:102D800003C000BF00BF3068FFF74EFF81464846D2
:102D900000280DDB00BF00BF00F01F0201219140A1
:102DA0004209920002F1E022C2F8001100BF00BF08
:102DB00000BF00BF00BF012084F82E000027384666
:102DC00087E70000040300206844000000E400E0FE
:102DD00018ED00E0F0B585B007460C4615461E46D6
:102DE000142207496846FDF79FFA8DF801400196C5
:102DF000039500226946384600F024F805B0F0BD7E
:102E0000844400002DE9F04186B007460C46154683
:102E10001E46DDF83080142101A8FDF79EFA8DF8DA
:102E2000054002960495B8F1000F01D0202000E083
:102E30000020024601A9384600F004F806B0BDE8BB
:102E4000F08100002DE9F04104460D4616460027AA
:102E50002079C0EB0010064901EB800833462A4672
:102E60004146206800F050FF07463846BDE8F08133
:102E70000403002010B50249024801F0C3F810BD58
:102E8000B4020020002000402DE9F04105460E4626
:102E90001746287900EB400101EBC0001A4901EB0D
:102EA00080044FF0000894F82A0020B14FF0080881
:102EB0004046BDE8F0812A79144B53F82210286867
:102EC000FFF7C0FE18B14FF011084046F1E7314658
:102ED0002846FDF733FF676030692060606818B1ED
:102EE000317F2846FEF744F928680421C0F8001510
:102EF00000BF0020A061E06184F82900606101202A
:102F000084F82A004046D4E7B4020020F8430000C9
:102F10002DE9F84F054689469246287900EB400195
:102F200001EBC000424901EB800400200090606882
:102F300020B14FF401712868FFF711FEA06970B14C
:102F4000E06950B1606820B14FF401712868FFF763
:102F500009FE11263046BDE8F88F01200090009848
:102F600038B9C4F818A0C4F80C9000206062E06181
:102F700003E0C4F81090C4F81CA094F8290020B90C
:102F8000009810B9284600F0C0FA6068002846D1C1
:102F90004FF4A2712868FFF7D6FD00BF00BF4FF4C1
:102FA00092712868FFF7C8FD80464FF48471286845
:102FB000FFF7C2FD83464FF4A2712868FFF7BCFDFE
:102FC0000746BBF1000F03D117B9B8F1000FE6D0E7
:102FD000B8F1000F00D107B107E02146286800F0E2
:102FE00059FA616AA0698842D8D800BF0020A06160
:102FF000B8F1000F02D003263046ACE717B10F2618
:103000003046A8E794F8290020B100212868FFF78E
:10301000B5FD03E004212868FFF7B0FD04E04FF49C
:1030200001712868FFF79EFD0026304693E70000F7
:10303000B40200202DE9F04104460F469046207965
:1030400000EB400101EBC0001C4901EB800520466C
:1030500000F036F818B111263046BDE8F081C5F809
:103060001480AF600020286285F8280000264FF405
:103070008E712068FFF767FD08212068FFF77EFD4D
:103080002946206800F0BBFE6868A0B92946206880
:1030900000F09AFE08B90F260BE000BF4FF48E71C6
:1030A0002068FFF749FD0028F8D00C212068FFF7C1
:1030B00065FD002068613046CFE70000B4020020C3
:1030C0000146087900EB400202EBC000044A02EB23
:1030D0008000406908B1012070470020FCE7000033
:1030E000B402002010B50249024801F04FF810BDAB
:1030F000E0020020002000402DE9F04105460E4688
:103100001746287900EBC000194901EB80044FF005
:10311000000894F8200020B14FF008084046BDE8B0
:10312000F0812A79134B53F822102868FFF78AFDA3
:1031300018B14FF011084046F1E731462846FDF737
:103140003BFE676030692060606818B1317F2846B7
:10315000FEF758F828680821C0F8001500BF0020C5
:10316000A061E0616061012084F820004046D6E75C
:10317000E0020020284400002DE9F84F04460E46E6
:103180001746207900EBC000484901EB8005304626
:10319000FFF74EFD20B94FF010084046BDE8F88F0C
:1031A0004FF0000A686820B14FF404712068FFF7FF
:1031B00007FDA86970B1E86950B1686820B14FF4A3
:1031C00004712068FFF7FFFC4FF011084046E5E767
:1031D0004FF0010ABAF1000F04D1AF61EE60002098
:1031E000E86101E02E61EF614FF000084FF4887153
:1031F0002068FFF7D8FC4FF4A2712068FFF7D3FCDA
:103200002068C0F834654FF4A7610F5000BFBAF1D1
:10321000000F04D100212068FFF7E3FC08E0202123
:103220002068D0F800220A43C0F8002200BF00BF87
:10323000207900EBC0001D4901EB8000406868BBAD
:1032400000BF4FF488712068FFF7A6FC00904FF490
:10325000A2712068FFF7A0FC83464FF492712068AA
:10326000FFF79AFC8146009828B9BBF1000F02D104
:10327000B9F1000FE5D00020217901EBC1010B4A23
:1032800002EB81018861B9F1000F01D04FF0030812
:10329000BBF1000F01D04FF00F0804E04FF40471B0
:1032A0002068FFF790FC404678E70000E00200202D
:1032B0002DE9F047044688469146207900EBC0008E
:1032C0002A4901EB80054046FFF7B2FC18B91026E9
:1032D0003046BDE8F087204600F04AF810B11126CC
:1032E0003046F6E7C5F81490C5F8088000264FF47C
:1032F00090712068FFF757FC4FF4AC712068FFF71E
:1033000052FC20686A69A968C0F844154FF4A963A3
:103310001A5000BF08212068FFF763FC686818BBDB
:1033200000BF4FF490712068FFF736FC82464FF4DF
:10333000AC712068FFF730FC0746BAF1000F01D1ED
:10334000002FEED00FB10F260BE00C212068FFF705
:1033500048FC00BF4FF4AC712068FFF71DFC00284B
:10336000F8D00020686100BF3046B2E7E0020020DC
:103370000146087900EBC000044A02EB8000406976
:1033800008B1012070470020FCE70000E0020020A7
:1033900070B504460D461646207A05280CD0607A92
:1033A00028B10A480AA102682846FEF761FD09A172
:1033B0002846FEF75DFD04E01EB106A12846FEF793
:1033C00057FD2846FEF769FD70BD0000840000200F
:1033D000257300000D0A0000F8B504460D46E0888C
:1033E00038B116A00090E38816A218A12846FEF76F
:1033F0003FFD207A05281FD0607A58B1217AA08835
:10340000FEF7E2FF174951F82060324616A1284620
:10341000FEF72EFD2846216800F06EF9A0880021F5
:10342000FFF722FA0646207A104951F82020334649
:103430000FA12846FEF71CFDF8BD00001B5B306D98
:10344000000000001B5B313B33316D0025734C6F76
:1034500067732064726F7070656420282564292565
:10346000730D0A0084000020257300007000002006
:103470003C25733E2025733A200000000146034896
:10348000814201D1024870470020FCE70020004043
:103490001000002070B505460C46A06940B94FF4F5
:1034A00084712846FFF74FFB00BFD5F8180570BDA3
:1034B0004FF484712846FFF746FB00BFD5F8180586
:1034C000C0B2626AE1688854606A401C606200BFF2
:1034D000EDE77FB504460D46164601208DF8000045
:1034E000029501966846D4E9001290477FBD7FB5EA
:1034F00004460D46164601208DF8000002950196FF
:103500006846D4E9001290477FBD10B504464FF4D9
:1035100092712068FFF717FB4FF484712068FFF762
:1035200012FB00212068FFF729FB10BD2DE9F84FA1
:1035300088461546002D35D04FF000090320009035
:1035400000BF08EB09012A460020FCF77BFF044678
:10355000A1442D1BFCB91448007800B920E00126D5
:1035600006B90FE000BF4FF47A7707B906E0DFF83D
:103570003CA04FEA871B5846D04700BF701E061E6E
:10358000F1D100BF0098401E0090009818B90020AB
:103590000549087004E0012003490870002DD0D1CE
:1035A00000BF00BFBDE8F88F50000020E1440000DC
:1035B0002DE9F05F05460E4690461F46DDF828903F
:1035C0004FEA154AFDF738FD83464AEA0B42781C5C
:1035D00000EA09000E4941F8202007EA090001EB42
:1035E0008004206865F3C5002060206868F38910B6
:1035F0002060206866F39F202060206820F0030090
:10360000401C2060206820F004002060BDE8F09F8E
:10361000040500202DE9FC478046894616461C46D5
:1036200016480768012201A92046FDF771FCC0B1C8
:10363000019800F1020A002509E056F825205046BD
:103640000AF1010A38400E4941F820206D1CA542BC
:10365000F3D30097224649464046019BFFF7A8FF57
:1036600000BF07480C38007830B100BF00BFFEF73C
:10367000DBFE0028FBD100BFBDE8FC876C0000200A
:10368000040500202DE9F04781460C461546984672
:10369000002608F00100A0B105E0641C761C394644
:1036A0004846FDF7A7FC2778002FF6D104E06D1EF1
:1036B00020214846FDF79EFCB5421BD9002DF6D1CE
:1036C00018E01CB12046FCF753FE064604E06D1ED0
:1036D00020214846FDF78EFCB54201D9002DF6D1D8
:1036E00005E0641C761C39464846FDF783FC2778C4
:1036F000002FF6D1BDE8F0877047000070B5044692
:1037000040F20C612248226840F82210626840F8BA
:1037100022102068FEF775FD6068FEF772FD40F22A
:103720000D611B48226840F82210626840F82210A0
:103730000420FFF765FA00251BE0606800BF4FF02A
:10374000A042114600BFD1F81025C24002F001028C
:1037500012B105B970BD0EE02068FEF731FD0420FE
:10376000FFF74EFA2068FEF74CFD0420FFF748FAF9
:103770006D1C092DE1DB00BF6068FEF721FD042010
:10378000FFF73EFA6068FEF73CFD00BFE2E700008D
:10379000000700507FB504460D462E4620788DF870
:1037A000000020798DF8040061798DF80510217AE8
:1037B0008DF80610217B8DF807102169029161694F
:1037C0000391044850F82610034850F82620684614
:1037D00090477FBD200000201800002070B50446EF
:1037E0000D46207820B1012806D002280CD107E030
:1037F00001200749087008E01220FEF7D6FC04E01B
:103800001120FEF7D2FC00BF00BF00BF70BD00005A
:103810000000002070B586B006460C4621463046B2
:1038200000F075F908B106B070BD94F82F0018BB10
:10383000207B022802D0207B03281DD1616AA06969
:10384000814219D1E06960626069A06294F8200049
:10385000C0F3401084F82C00002084F82D00207B59
:10386000032804D12146304600F0E8F93DE0214626
:10387000304600F0B1F838E0142204F10C0101A840
:10388000FCF752FD94F82F00E0B13046FFF72EF917
:10389000054605F0020018B101208DF8000010E087
:1038A00005F0040018B102208DF8000009E005F0D1
:1038B000010018B103208DF8000002E004208DF80B
:1038C000000002E000208DF80000002084F83000A5
:1038D00094F8200000F0040010B194F82F0018B103
:1038E0006846D4E90021904700BF00BF9BE7000075
:1038F0007FB50D4B0FCB8DE80F0000230B4A6946B7
:103900000B48FEF7DBF9044600BF254625B100BF92
:103910002846FDF70FF900BF00BF054D281DFFF732
:10392000B5F900BF7FBD0000D0430000DD370000C7
:10393000C04300000146032001F001020AB14FF428
:10394000024001F002020AB148F2012001F0040233
:103950000AB148F20220704770B505460C46A16ACC
:10396000606B884235D200BFD5F81805C0B2626BD3
:10397000616A8854606B401C6063A06A401E616B82
:10398000814209D194F8200000F0400020B90221C2
:103990002846FFF7C5F818E0A16A606B884206D197
:1039A00094F8200000F0400008B9012070BDA16A21
:1039B000606B884209D194F8200000F0400020B1EB
:1039C000022084F82D000020F0E720212846FFF790
:1039D000AAF80120EAE70000F8B506460C460027E1
:1039E000344800904FF482713046FFF78CF84FF462
:1039F00092713046FFF787F84FF48E713046FFF72B
:103A000082F84FF484713046FFF77DF80020606340
:103A100084F82F00A06A012809D194F8200000F052
:103A2000400020B902213046FFF77AF803E0012177
:103A30003046FFF775F820213046FFF774F894F808
:103A40002D00022803D000213046FFF76CF82068D3
:103A500038B140F28620A060A1683046FFF75DF8DB
:103A600025E002E00098401E00900098002805DD47
:103A70002146304600F04BF80028F3D194F82F008F
:103A800058B13046FFF732F8054625B12846FFF712
:103A900051FF074600E0032700BF0098002806DC1E
:103AA0003046FFF71BF83046FFF71CF8032738466F
:103AB000F8BD0000A086010070B505460C46A16A5D
:103AC000606B884206D2626B616A885CC5F81C052F
:103AD00000BF1AE094F82C0028B11C212846FFF7FB
:103AE00022F8002070BD94F8200000F0400040B1A2
:103AF0001C212846FFF717F8012084F82D0000202C
:103B0000F0E714212846FFF70EF80120EAE770B528
:103B100005460C4600264FF482712846FEF7ECFF5E
:103B200028B14FF482712846FEF7EDFF012694F884
:103B30002F0078B14FF492712846FEF7E4FF4FF45E
:103B40008E712846FEF7DFFF4FF484712846FEF79A
:103B5000DAFF5FE04FF492712846FEF7CDFF60B1C7
:103B60004FF492712846FEF7CEFF14212846FEF747
:103B7000DAFF012084F82F004CE04FF48E712846C4
:103B8000FEF7BAFF08B34FF48E712846FEF7BBFF6D
:103B9000606B401C60634FF492712846FEF7ACFFE7
:103BA00060B14FF492712846FEF7ADFF142128460C
:103BB000FEF7B9FF012084F82F002BE021462846AC
:103BC000FFF77AFF30BB002070BD4FF484712846A8
:103BD000FEF792FFF0B14FF484712846FEF793FF91
:103BE0004FF492712846FEF787FF60B14FF492714F
:103BF0002846FEF788FF14212846FEF794FF01208F
:103C000084F82F0006E021462846FFF7A5FE08B9F4
:103C10000020D9E77EB1002084F82D0094F82F0011
:103C200038B92146284600F0A7FB80F0010084F84F
:103C30002F000020C8E70120C6E70000F8B50646BF
:103C40000C4600272F4800904FF482713046FEF753
:103C50005AFF4FF492713046FEF755FF4FF48E71C4
:103C60003046FEF750FF4FF484713046FEF74BFFAD
:103C700000213046FEF754FF0020606384F82F00D7
:103C800020213046FEF74FFF94F82D00012803D085
:103C900008213046FEF747FF21463046FFF70CFF6C
:103CA000206838B140F28620A060A1683046FEF757
:103CB00034FF25E002E00098401E009000980028A4
:103CC00005DD21463046FFF722FF0028F3D194F8A6
:103CD0002F0058B13046FEF709FF054625B12846AA
:103CE000FFF728FE074600E0032700BF00980028E2
:103CF00006DC3046FEF7F2FE3046FEF7F3FE032701
:103D00003846F8BDA08601002DE9F04107460C4673
:103D100015461E464FF0000894F82D00012805D1E5
:103D20002878012802D10820BDE8F08194F82D0000
:103D3000022804D12878012801D00820F4E721497D
:103D40003846FEF7E7FE94F8300038B1A1683846EF
:103D5000FEF7E3FE4FF011084046E5E7012020EAB8
:103D6000960084F8300026621422294604F10C00E3
:103D7000FCF7DAFA6868A062E86860626878C7F8F9
:103D8000880500BF287801280FD0287810B906F0E0
:103D9000200008B1012000E0002084F82C0021461A
:103DA0003846FFF74BFF804604E021463846FFF7D0
:103DB00013FE8046206810B9002084F83000404689
:103DC000B2E700008642040070B505460C466669FD
:103DD00010E004E094F8280008B1002070BD4FF412
:103DE0008E712846FEF7A8FE0028F3D0214628460B
:103DF00000F005F8206AB042EBD30120EEE770B581
:103E000005460C464FF48E712846FEF79CFE216A4B
:103E1000A068465C206A401C20623046C5F81C053C
:103E200000BF70BD7FB504460D4600208DF8000030
:103E30000295A0680190002060616846D4E90012F4
:103E400090477FBD7FB504460D4600208DF80000E9
:103E50000295A0680190002060616846D4E90012D4
:103E600090477FBD30B58BB01822114905A8FCF7EB
:103E70005BFA00BF0F4801904FF4807002900E482B
:103E800003904FF48070049007230C4A01A905A801
:103E9000FCF790FE044600BF00BF254625B100BFD9
:103EA0002846FCF747FE00BF00BF0BB030BD000046
:103EB000A8430000B4000020B4010020C13E00006F
:103EC00010B504462078022804D100BF6068FCF7D2
:103ED00031FE07E02078012804D100BF6068FCF7BC
:103EE00029FE00BF10BD00007CB504460E462078B8
:103EF000002847D0012802D0022856D133E0207A8A
:103F000028B901222A492B48FDF76EFF4EE0606870
:103F100001782948FCF73DFE054645B101208DF8A2
:103F20000000019568462549096888470AE022484B
:103F3000FDF79FF830B100208DF8000068461F495A
:103F4000096888471C48FDF794F81B49898888420E
:103F500005D8012216491748FDF746FF02E0012067
:103F60001749087022E002208DF80000E0680190F7
:103F700001220F490F48FDF737FF68460F490968CE
:103F8000884713E00F491048FCF7E2FD28B90122E9
:103F90000C490848FDF74AFF06E003208DF80000B1
:103FA000684606490968884700E000BF00BF7CBD3D
:103FB000450000202C00002040030020400000208D
:103FC0004600002044000020500300207FB5044636
:103FD0000D462E4620788DF8000060680190217A09
:103FE0008DF80810E1680391044850F82610044841
:103FF00050F82620684690477FBD0000080000204A
:10400000040000202DE9FF4105460C464FF40071E5
:104010002846FEF7AAFD48B34FF492712846FEF7F2
:104020008BFD18B34FF492712846FEF78CFD4FF4C8
:1040300001712846FEF793FD94F8290018B9042170
:104040002846FEF79BFD02208DF800002846FEF76B
:104050006DFD0390A1690291E06801900020A061CC
:10406000E0616846D4E90012904737E00421284611
:10407000FEF77BFD002831D04FF484712846FEF70F
:104080005BFD58B321462846FFF704FA616AA06930
:10409000884223D1E06970B1E668676AE069A0618F
:1040A0002069E0600020E0616062324639462046C7
:1040B000FFF70FFA12E094F8290018B904212846F6
:1040C000FEF75CFD4FF401712846FEF748FD002025
:1040D000A061E268616A2046FFF7FBF94FF48E7138
:1040E0002846FEF729FDB8B16669206AB04207D2BA
:1040F00094F8280020B921462846FFF780FE0AE000
:104100004FF48E712846FEF71EFD606918B1616993
:104110002046FFF787FE00BF4FF4A2712846FEF746
:104120000BFDA0B14FF4A2712846FEF70CFD94F8E8
:10413000290018B100212846FEF720FDA06930B102
:104140000020A061E268616A2046FFF7C2F9BDE87D
:10415000FF8100007FB504460D462E4620788DF87D
:10416000000060680190217A8DF80810E1680391E1
:10417000044850F82610044850F826206846904716
:104180007FBD000008000020040000202DE9FF4151
:1041900006460C464FF492713046FEF7FDFCC8B15E
:1041A0004FF492713046FEF7FEFC02208DF80000BD
:1041B0003046FEF7EBFC03903046FEF707FD029019
:1041C000E06801900020A061E0616846D4E9001237
:1041D00090472CE04FF488713046FEF7DDFC30B399
:1041E0004FF488713046FEF7DEFC3046FEF7EEFCF9
:1041F0000546A069A84219D1E06980B1E76820218D
:104200003046FEF7E8FCE069A0612069E06000202C
:10421000E0613A4629462046FFF769F906E00020AA
:10422000A06129462046E268FFF761F900BF4FF41C
:10423000A2713046FEF7B0FC90B14FF4A271304647
:10424000FEF7B1FCA06958B10020A061E0613046E2
:10425000FEF7BCFC054629462046E268FFF747F911
:104260004FF490713046FEF797FC90B14FF4907187
:104270003046FEF798FC0C213046FEF7B2FC606930
:1042800038B13046FEF7B0FC054629462046FFF718
:10429000D9FD4FF4AC713046FEF77EFC70B14FF49F
:1042A000AC713046FEF77FFC606938B13046FEF7EE
:1042B0009BFC054629462046FFF7C4FDBDE8FF816B
:1042C0002DE9FF4F81B0884616461F46DDE90E4BAB
:1042D00045464FF0010A03E0B5FBF6F50AF1010A85
:1042E000B542F9D2574500D9BA460BF0010098B94A
:1042F00094B10BF00200022803D117B930200090CE
:1043000001E02020009004E0641EDDE90010FCF7CD
:1043100071FE0CB1A245F7D3012509E0012F01D9A7
:104320007F1E04E0B8FBF5F9B14500D201E075430A
:10433000F4E700BF00BFB8FBF5F909FB15880D488D
:1043400010F809100198FCF755FEB5FBF6F5002DA5
:10435000F1D10BF0010048B144B104E0641E20210A
:104360000198FCF747FE0CB1A245F7D305B0BDE8B4
:10437000F08F00009844000070B505460C46A16A15
:10438000606B884207D02846FEF7A8FB2846FEF758
:10439000A9FB002070BD0120FCE700000000000028
:1043A0000338FDD870470000080000000600000038
:1043B00005000000070000000000000000E0D70139
:1043C000010000000040004000000000000000006C
:1043D000190000001B00000000009801020000000E
:1043E000111213140D0E0F106E7266785F756172E4
:1043F000745F696E69740000752E00006E726678D5
:104400005F756172745F7478006E7266785F756153
:1044100072745F72780000006E7266785F75617208
:1044200074655F696E697400E53000006E726678CD
:104430005F75617274655F7478006E7266785F751F
:10444000617274655F727800000000000000000077
:104450000338FDD8704700006E7266785F74776924
:104460005F696E6974000000C90400007477695FB9
:1044700078666572006E7266785F7477695F7866D9
:104480006572000001000000000000000000000054
:104490000000000000000000303132333435363780
:1044A0003839414243444546FFFFFFFFFFFFFFFF0E
:1044B000FFFFFFFFFFFFFFFF000000000000000004
:1044C0000000D6010601000000000000000000000E
:1044D000B5220000B3220000A92200000000000065
:1044E0000338FDD870470000600400207F00000002
:1044F000E0040020004040404040404040404141F6
:1045000041414140404040404040404040404040A8
:104510004040404040050202020202020202020242
:10452000020202020220202020202020202020023F
:1045300002020202020290909090909010101010CF
:10454000101010101010101010101010101010106B
:1045500002020202020288888888888808080808FF
:1045600008080808080808080808080808080808CB
:104570000202020240000000F54400007761726E02
:10458000696E670064656275670000001B5B313B04
:1045900033306D001B5B306D000000001B5B313B56
:1045A00033316D001B5B313B33326D001B5B313BA4
:1045B00033336D001B5B313B33346D001B5B313B90
:1045C00033356D001B5B313B33366D001B5B313B7C
:1045D00033376D00696E666F000000006572726FA0
:1045E00072000000554152540000000055415254E1
:1045F0004500000050525300545749007274745FD4
:104600006C6F675F6261636B656E64006170700000
:104610007C46000000000020B400000000090000FB
:1046200030470000B4000020EC1A00001009000020
:10463000D044000000000000FC45000054000020B1
:10464000E445000000000000EC4500000000000010
:10465000F445000000000000F845000000000000E4
:104660000C46000000000303640000205C000020F2
:1046700064000020A00300201800000000000000DB
:10468000000000000000000000000000000000002A
:10469000000000000000000000000000000000001A
:1046A00000000000000000000000000000200040AA
:1046B000000000000020004000000000000000009A
:1046C00000000000000000000000000000000000EA
:1046D00000000000FF0000000000000000000000DB
:1046E0000000000000000000FF00000000000000CB
:1046F000DC4500007C450000D445000084450000F6
:10470000944500008C4500009C450000A445000035
:10471000AC450000B4450000BC450000C4450000A5
:10472000CC45000000000000000000000090D00315
:0400000500000201F4
:00000001FF
